:0200000280007C
:1000000010090020D9040800D5040800D504080010
:10001000D5040800D5040800D5040800000000003D
:10002000000000000000000000000000D5040800EF
:10003000D504080000000000D5040800D50408001D
:10004000D5040800D5040800D5040800D50408002C
:10005000D5040800D5040800D5040800D50408001C
:10006000010F0800D504080000000000D5040800B6
:10007000D5040800D5040800D504080000000000DD
:1000800000000000D5040800D5040800D5040800CD
:10009000D5040800D5040800D5040800D5040800DC
:1000A000D504080000000000D5040800D5040800AD
:1000B000D5040800D5040800D5040800D5040800BC
:1000C000D5040800D5040800D5040800D5040800AC
:1000D000D5040800D5040800D5040800D50408009C
:1000E000D5040800D5040800D5040800E50208007E
:1000F000D504080010B5054C237833B9044B13B16F
:100100000448AFF300800123237010BD34040020A5
:10011000000000005C1F08000C4B43B10C4810B5F8
:100120000C49AFF300800C48036823B910BD0A489E
:10013000036833B97047094B002BF7D0BDE8104076
:100140001847064B002BF5D0184700BF00000000F1
:100150005C1F0800380400205C1F0800000000003D
:100160002DE9F0435518082998BF082A64D80E468F
:10017000082D61DC324A136823F001031360136910
:10018000304B4FF440745C641C6F24F003041C6714
:1001900003245C605C66A3F500632B4CC3F80C4140
:1001A000D3F8004144F40064C3F800415061A9420F
:1001B00040DC0A460024A146DFF884804FF0005C52
:1001C0004FF0807E0127530103F1402000F53020DD
:1001D000C0F804924344C3F808C2C0F800E2D3F860
:1001E0001C0240F40000C3F81C0207FA02F31C438F
:1001F00001329542E7DA81B1002311494FF00055F1
:100200004FF0407001EB4312C2F8085203F11002A4
:100210005201885001339E42F4D1094B5C604FF487
:1002200000610A4A51601A6842F001021A60002017
:10023000BDE8F0830024DEE70120BDE8F08300BFC5
:1002400000400B40000E0E402B10001000E100E0BB
:1002500008B502220121014B984708BD6101080041
:100260004B0103F1402303F53023D3F8103213F48C
:10027000000F33D030B44B0103F1402303F530239A
:10028000D3F81422D3F81842D3F80852C5F38A459C
:100290000580D3F81032C3F3034383701D465BB16E
:1002A00003300023032BD9BF0270120A0470240A02
:1002B00001330130AB42F5D1094B01F1100252017B
:1002C0004FF08070985003EB4111D1F81C3243F489
:1002D0000003C1F81C32002030BC70470120704779
:1002E00000400B4010B5184B1C6914F0060F13D0DA
:1002F00014F0020F1CD114F0040F21D00221134876
:10030000134B98470122134B1A60104B9A781AB17D
:10031000002301339342FCD114F0010F02D00122DB
:10032000094B9A604FF400620B4BC3F8842110BD57
:1003300001210648064B98470122064B1A60E4E764
:100340000648074B9847E0E700400B405804002060
:10035000610208005004002000E100E0C41D080014
:10036000710D0800014B1868704700BF5004002051
:1003700010B40021054A1160054A1468516892685A
:1003800004604160826010BC704700BF50040020D0
:1003900058040020F0B585B00027174D174E184CB3
:1003A00001E0B047C8B92B68002BFAD0154B1B6889
:1003B000002BF6D1144B98473946144B9847074603
:1003C0006846134B98470099019A029B216062602E
:1003D000A3601048104B9847E5E768460F4B9847D5
:1003E0000099019A029B21606260A3606379002BEF
:1003F000D9D101232B60D6E7000000206503080057
:100400006404002054040020390608004506080052
:1004100001070800A0860100890408007103080094
:1004200008B50022044B1A600122044B1A600448EC
:10043000044B984708BD00BF000000205404002072
:10044000441E0800710D080008B50022034B1A6015
:10045000042800DC08BD024B9847FBE700000020A1
:1004600021040800064B586001221A601A461368DE
:1004700013F4803FFBD00022014B1A60704700BF8D
:1004800010E000E00000000010B50D4B984708A3F5
:10049000D3E900230B4CA04707A3D3E900230A4C60
:1004A000A0470A4B98470A4B984710BDAFF300800E
:1004B00000000000D01263410000000080842E4143
:1004C0000D120800D91208002D150800FD160800AD
:1004D00065040800FEE7000008B5184B184A9A4268
:1004E00010D0184B154A9A420CD2013B9B1A23F0AC
:1004F000030304331344124951F8040B42F8040B6C
:100500009A42F9D1104B114A9A420AD2013B9B1AE6
:1005100023F0030304331344002142F8041B9342E5
:10052000FBD10B4B23F0604323F07F03094A936018
:10053000094B9847094B9847FEE700BF0000002091
:100540005C1F080034040020100500203404002043
:100550000000080000ED00E0551C080091070800AD
:100560004FF48063204A136002F5007213601F4B42
:100570001B6A13F0807F07D11D4A1C4B1A621A4672
:10058000936E13F0010FFBD01A4A184B1A621A46E9
:10059000936E13F4803FFBD0144A136B23F00303D4
:1005A00043F001031363936E13F0080FFBD0124A5C
:1005B0000E4B9A621A46936E13F0020FFBD0112273
:1005C0000A4B1A631A46936E13F0080FFBD01222DF
:1005D000064B1A631A46936E13F0080FFBD0074AB6
:1005E000074B1A60704700BF000A0E4000060E401D
:1005F0000908370009083701013F0D2000BD01053A
:10060000040000200A4AD2F8003143F02003C2F867
:100610000031084B5A6842F080025A601A6942F071
:1006200001021A611A6842F002021A60704700BFA4
:1006300000060E4000000C40014B186D704700BFD3
:1006400000000C4010B50C46B0F5967F01DB20464B
:1006500010BD01342046014B9847F8E749040800D3
:10066000064B4FF480321A601A611A6620B14FF4BB
:100670008032024B5A6370471A63704700120E4073
:10068000F8B50C46884218DD134EB047134D0146AD
:100690001348A84707462046B04701461048A847D8
:1006A000014638460F4B98470F49104B9847104961
:1006B000104B9847104B9847F8BD074DA847064682
:1006C0002046A84701463046064B98470B49074B42
:1006D0009847094B9847F8BDC118080055170800FE
:1006E00000007F43D11A08000000C8C26919080041
:1006F0000000484359170800091C08000000C842C0
:100700002DE9F04184B00446184B984750B9184B76
:1007100019685A689B6821606260A360204604B033
:10072000BDE8F081124D6846124B98470099019A36
:10073000029B29606A60AB60AE790F4B1E60DFF8E8
:100740004C80EB79C8F800303146E8780B4FB84759
:1007500031460B4B9847D8F800102879B847094B19
:1007600098476879084B9847D1E700BF65030800B0
:100770006404002071030800700400208106080052
:1007800041090800190E0800610608008C040020C9
:1007900008B50E4B98474FF400420D4B5A600D4B75
:1007A00098470D480D4B98470D4B98470D4B984770
:1007B0000D4B98470D4B98470D4B98470D480E4BE6
:1007C00098470E4B9847002008BD00BF6105080000
:1007D000501A0E40750E08006105290051020800EC
:1007E0003108080001080800950D080005060800FA
:1007F000ED09080040420F00890408009503080035
:10080000084AD2F8003143F04003C2F800314FF4F7
:100810008032054B1A60054A136843F002031360E7
:10082000704700BF00060E4004800C4010800C4052
:1008300038B51549154BC1F8E430154B1A6942F427
:1008400000521A611A6942F480421A61114C012265
:10085000226022610423236023614FF480632360BC
:1008600023610225256025614FF400732360236115
:100870004FF4FF70086208666263236365631E209D
:10088000054B9847256338BD00120E40004F495074
:1008900000060E4000140E40890408002DE9F843BC
:1008A0000D4D01266E634FF00409C5F834901420F5
:1008B000DFF82C80C047094FFC6BE40104F47F444F
:1008C000C5F830901420C047F86B2E63C0F3470082
:1008D000204300B2BDE8F88300140E4000120E4021
:1008E000890408000000000010B50F4B83FB0023B3
:1008F000C017C0EB231000B20C4B984708A3D3E9F4
:1009000000230B4CA04700220A4B0B4CA0470B4B7B
:1009100098470028B8BF404210BD00BFAFF3008029
:100920001F85EB51B81EED3F676666660D12080025
:10093000D912080000006940710F0800FD16080078
:1009400070B5044601461D481D4DA8471D4B9847EC
:100950001D4B9847064601B220B21C4B98470446EF
:1009600031461B48A84721461A48A84784EAE47341
:10097000A3EBE473C3EB031343F48053164A1362EF
:1009800004EB8401490041F480511448A847002C2D
:1009900002DC002C08DB70BD21461148A8474FF44B
:1009A0008062104B5A6370BD21460F48044B984734
:1009B0004FF480620B4B1A63EDE700BF501E080036
:1009C000710D08009D080800E9080800110A0800D8
:1009D000601E0800781E080000800C40841E08007D
:1009E000A01E080000140E40AC1E0800074B012199
:1009F000196000229A609A809981DA811A8243F6FE
:100A0000FF725A826FF040425A6170479004002092
:100A100030B4081A80B203B2204AB2F912209342CD
:100A200008DC5242934228DB1C4A928902FB00F008
:100A300000B201E047F6FF70184A946823445269F7
:100A400093421CDD154B9A606FF04043134CB4F990
:100A50000420521A258A02FB05F212B2A180184422
:100A600010440F4B9842B8BF184647F6FF739842A0
:100A7000A8BF184600B230BC70470948DCE75242B4
:100A8000934203DA054B9A60064BDFE7034A936013
:100A9000B2F90E2003FB02F3D8E700BF9004002058
:100AA0000180FFFF010000C02DE9F8430D46161E2E
:100AB00048DD0A78002A35D00A460024013412F8AD
:100AC000011F0029FAD1A6422DDC002403F0020206
:100AD000002A0CBF4FF020084FF0300813F001033C
:100AE00023D1002C28DD26465FFA88F9184F4846A6
:100AF000B847013EFBD1287888B1154FB84701347B
:100B000015F8010F0028F9D1002E08DD35465FFAEF
:100B100088F80F4F4046B847013DFBD1344420468A
:100B2000BDE8F8830024341BD0E72646287808B1B6
:100B30000024E2E70024E7E726461C46DBE74FF007
:100B40002008D8E713F00104F9D04FF02008EDE7B2
:100B5000DD0E0800F0B585B0074681B30C460BB139
:100B60000A2A38D000238DF80F300026002946D0FD
:100B70000DF10F050C993A39B4FBF2F302FB134364
:100B8000092BC8BF5B18303305F8013DB4FBF2F404
:100B9000002CF1D156B10A9B1BB10B9B13F0020F35
:100BA00025D12D2305F8013C013D00260B9B0A9A17
:100BB00029463846144CA047304405B0F0BD3023D8
:100BC0008DF8043000238DF805300B9B0A9A01A99B
:100BD0000D4CA047F1E70029C4DA4C4200238DF800
:100BE0000F300DF10F05002CD5D00126C0E72D20C8
:100BF000064B98470A9B013B0A930126D6E71E46FF
:100C00000DF10F05D2E700BFA90A0800DD0E0800AC
:100C10002DE9F04F87B080460B78002B00F09480D0
:100C20008B46174600254E4EDFF83CA1DFF83C917D
:100C300046E0002270E0396804374A48002908BFBE
:100C400001464046D047054435E039680437612005
:100C500002900193009201230A224046C8470544AE
:100C600029E0396804376120029001930092002343
:100C700010224046C84705441DE03968043741202A
:100C8000029001930092002310224046C847054479
:100C900011E039680437612002900193009200232B
:100CA0000A224046C847054405E0A3469BF80000D9
:100CB000B04701355C4604F1010B6378002B44D04A
:100CC000252BF3D10BF101049BF80130002B3CD014
:100CD000252BEAD02D2B06BF0BF1020401230023A4
:100CE0002278302A05D143F0020314F8012F302A6C
:100CF000F9D02178A1F13002D2B2092A99D8002284
:100D000002EB8202303901EB420214F8011FA1F11B
:100D10003000C0B20928F3D973298CD0642994D04B
:100D200078299ED05829A8D07529B2D06329C2D17C
:100D3000396804378DF8141000218DF8151005A9B5
:100D40004046D0470544B6E70025B8F1000F03D070
:100D5000D8F8003000221A70284607B0BDE8F08F9E
:100D6000DD0E0800B81E0800A90A0800550B08008F
:100D70000FB400B583B004AA52F8041B01920020FE
:100D8000034B984703B05DF804EB04B0704700BF15
:100D9000110C0800114B5A6842F480225A601A6FF5
:100DA00042F480221A670E4AC3F8E4200D4AD2F8B2
:100DB000003143F01003C2F800310C220A4B1A60D4
:100DC000A3F530734FF4A8021A6044F62061074A75
:100DD00011605A6842F040025A60704700120E409B
:100DE000004F495000060E40C0420940CC42094025
:100DF00008B5A0F58C43503BB3F57A7F02D8034B7E
:100E0000186008BD0248034B984708BDC44209401A
:100E1000C01E0800710D080008B51D2816DDA0F1E0
:100E20001F03262B17D9A0F147033A2B16D9A0F19F
:100E30008303262B15D9AA2802DD44F6382007E0C3
:100E400009480A4B984744F6440001E044F25060D8
:100E5000074B984708BD44F24A70F9E744F644004E
:100E6000F6E744F63E10F3E7FC1E0800710D08009B
:100E7000F10D0800164B00221A705A70154B4FF4F2
:100E80004071596459601A6F186F024022F4407221
:100E90001A6759664FF48072A3F500631A6103F56F
:100EA0000073AC21196040F2232119624FF40061F4
:100EB000596040F20221C3F820114FF0FF31D96090
:100EC000E121996004490A6050221A60704700BF0E
:100ED000A8040020000E0E4000E100E0074B5B6913
:100EE00013F0020F08D0054BD8611A46536913F46A
:100EF000007FFBD0002070470120704700080E40A3
:100F000008B5154B5B6913F0E00F03D04FF4A871DF
:100F1000114A116013F0010F12D010484278531C8F
:100F2000594203F03F0301F03F0158BF4B420178A3
:100F30008B4206D00849886908490A4490704B7072
:100F400008BD0748074B9847034B9A69034B5978EC
:100F50000B449A7008BD00BF00080E40A804002092
:100F6000141F0800710D080081F0004102E000BF6D
:100F700083F0004330B54FEA41044FEA430594EA59
:100F8000050F08BF90EA020F1FBF54EA000C55EA94
:100F9000020C7FEA645C7FEA655C00F0E2804FEA65
:100FA0005454D4EB5555B8BF6D420CDD2C4480EA47
:100FB000020281EA030382EA000083EA010180EA77
:100FC000020281EA0303362D88BF30BD11F0004FC5
:100FD0004FEA01314FF4801C4CEA113102D04042FB
:100FE00061EB410113F0004F4FEA03334CEA133336
:100FF00002D0524263EB430394EA050F00F0A7804E
:10100000A4F10104D5F1200E0DDB02FA0EFC22FA48
:1010100005F2801841F1000103FA0EF2801843FA3C
:1010200005F359410EE0A5F120050EF1200E012A2D
:1010300003FA0EFC28BF4CF0020C43FA05F3C0186B
:1010400051EBE37101F0004507D54FF0000EDCF1E4
:10105000000C7EEB00006EEB0101B1F5801F1BD38D
:10106000B1F5001F0CD349085FEA30004FEA3C0C91
:1010700004F101044FEA445212F5800F80F09A8087
:10108000BCF1004F08BF5FEA500C50F1000041EB8B
:10109000045141EA050130BD5FEA4C0C404141EB8F
:1010A000010111F4801FA4F10104E9D191F0000FB6
:1010B00004BF01460020B1FA81F308BF2033A3F139
:1010C0000B03B3F120020CDA0C3208DD02F1140C30
:1010D000C2F10C0201FA0CF021FA02F10CE002F16B
:1010E0001402D8BFC2F1200C01FA02F120FA0CFC64
:1010F000DCBF41EA0C019040E41AA2BF01EB0451AD
:10110000294330BD6FEA04041F3C1CDA0C340EDCAA
:1011100004F11404C4F1200220FA04F001FA02F3ED
:1011200040EA030021FA04F345EA030130BDC4F1AB
:101130000C04C4F1200220FA02F001FA04F340EAA0
:101140000300294630BD21FA04F0294630BD94F051
:10115000000F83F4801306BF81F480110134013D38
:101160004EE77FEA645C18BF7FEA655C29D094EAA9
:10117000050F08BF90EA020F05D054EA000C04BF27
:101180001946104630BD91EA030F1EBF0021002012
:1011900030BD5FEA545C05D14000494128BF41F0B1
:1011A000004130BD14F580043CBF01F5801130BD15
:1011B00001F0004545F0FE4141F470014FF00000A0
:1011C00030BD7FEA645C1ABF194610467FEA655C51
:1011D0001CBF0B46024650EA013406BF52EA0335F3
:1011E00091EA030F41F4002130BD00BF90F0000FE1
:1011F00004BF0021704730B54FF4806404F132041D
:101200004FF000054FF0000150E700BF90F0000FD5
:1012100004BF0021704730B54FF4806404F13204FC
:1012200010F0004548BF40424FF000013EE700BFCC
:1012300042004FEAE2014FEA31014FEA02701FBF5C
:1012400012F07F4393F07F4F81F06051704792F02E
:10125000000F14BF93F07F4F704730B54FF46074A8
:1012600001F0004521F0004120E700BF50EA0102F3
:1012700008BF704730B54FF000050AE050EA0102A0
:1012800008BF704730B511F0004502D5404261EB10
:1012900041014FF4806404F132045FEA915C3FF451
:1012A000DCAE4FF003025FEADC0C18BF03325FEAEA
:1012B000DC0C18BF033202EBDC02C2F1200300FA9F
:1012C00003FC20FA02F001FA03FE40EA0E0021FAC4
:1012D00002F11444C1E600BF70B54FF0FF0C4CF4AE
:1012E000E06C1CEA11541DBF1CEA135594EA0C0F64
:1012F00095EA0C0F00F0DEF82C4481EA030621EA9F
:101300004C5123EA4C5350EA013518BF52EA0335D9
:1013100041F4801143F4801338D0A0FB02CE4FF08B
:101320000005E1FB02E506F00042E0FB03E54FF0BB
:101330000006E1FB03569CF0000F18BF4EF0010EB3
:10134000A4F1FF04B6F5007F64F5407404D25FEAAF
:101350004E0E6D4146EB060642EAC62141EA555162
:101360004FEAC52040EA5E504FEACE2EB4F1FD0CA4
:1013700088BFBCF5E06F1ED8BEF1004F08BF5FEA22
:10138000500E50F1000041EB045170BD06F00046D4
:1013900046EA010140EA020081EA0301B4EB5C0481
:1013A000C2BFD4EB0C0541EA045170BD41F4801179
:1013B0004FF0000E013C00F3AB8014F1360FDEBF9E
:1013C000002001F0004170BDC4F10004203C35DA7A
:1013D0000C341BDC04F11404C4F1200500FA05F3FD
:1013E00020FA04F001FA05F240EA020001F000429E
:1013F00021F0004110EBD37021FA04F642EB060114
:101400005EEA430E08BF20EAD37070BDC4F10C043D
:10141000C4F1200500FA04F320FA05F001FA04F201
:1014200040EA020001F0004110EBD37041F10001ED
:101430005EEA430E08BF20EAD37070BDC4F12005F8
:1014400000FA05F24EEA020E20FA04F301FA05F260
:1014500043EA020321FA04F001F0004121FA04F208
:1014600020EA020000EBD3705EEA430E08BF20EAD8
:10147000D37070BD94F0000F0FD101F00046400012
:1014800041EB010111F4801F08BF013CF7D041EA94
:10149000060195F0000F18BF704703F00046520098
:1014A00043EB030313F4801F08BF013DF7D043EA69
:1014B0000603704794EA0C0F0CEA135518BF95EA1F
:1014C0000C0F0CD050EA410618BF52EA4306D1D1A6
:1014D00081EA030101F000414FF0000070BD50EAC5
:1014E000410606BF1046194652EA430619D094EA4F
:1014F0000C0F02D150EA013613D195EA0C0F05D139
:1015000052EA03361CBF104619460AD181EA03018C
:1015100001F0004141F0FE4141F470014FF0000044
:1015200070BD41F0FE4141F4780170BD70B54FF0DF
:10153000FF0C4CF4E06C1CEA11541DBF1CEA13555F
:1015400094EA0C0F95EA0C0F00F0A7F8A4EB050441
:1015500081EA030E52EA03354FEA013100F0888038
:101560004FEA03334FF0805545EA131343EA126301
:101570004FEA022245EA111545EA10654FEA0026B6
:101580000EF000419D4208BF964244F1FD0404F56F
:10159000407402D25B084FEA3202B61A65EB0305CB
:1015A0005B084FEA32024FF480104FF4002CB6EB88
:1015B000020E75EB030E22BFB61A754640EA0C0008
:1015C0005B084FEA3202B6EB020E75EB030E22BF48
:1015D000B61A754640EA5C005B084FEA3202B6EB89
:1015E000020E75EB030E22BFB61A754640EA9C0048
:1015F0005B084FEA3202B6EB020E75EB030E22BF18
:10160000B61A754640EADC0055EA060E18D04FEAD5
:10161000051545EA16754FEA06164FEAC30343EA75
:1016200052734FEAC2025FEA1C1CC0D111F4801F42
:101630000BD141EA00014FF000004FF0004CB6E73B
:1016400011F4801F04BF01430020B4F1FD0C88BFDA
:10165000BCF5E06F3FF6AFAEB5EB030C04BFB6EBE5
:10166000020C5FEA500C50F1000041EB045170BDD8
:101670000EF0004E4EEA113114EB5C04C2BFD4EB05
:101680000C0541EA045170BD41F480114FF0000E89
:10169000013C90E645EA060E8DE60CEA135594EA05
:1016A0000C0F08BF95EA0C0F3FF43BAF94EA0C0F08
:1016B0000AD150EA01347FF434AF95EA0C0F7FF47D
:1016C00025AF104619462CE795EA0C0F06D152EAD1
:1016D00003353FF4FDAE1046194622E750EA4106B5
:1016E00018BF52EA43067FF4C5AE50EA41047FF4C6
:1016F0000DAF52EA43057FF4EBAE12E74FEA410229
:1017000012F5001215D211D56FF47873B3EB625253
:1017100012D94FEAC12343F0004343EA505311F07A
:10172000004F23FA02F018BF404270474FF000000C
:10173000704750EA013005D111F0004008BF6FF04A
:10174000004070474FF00000704700BF80F000403D
:1017500002E000BF81F0004142001FBF5FEA410389
:1017600092EA030F7FEA226C7FEA236C6AD04FEA89
:101770001262D2EB1363C1BFD218414048404140CE
:10178000B8BF5B42192B88BF704710F0004F40F480
:10179000000020F07F4018BF404211F0004F41F49C
:1017A000000121F07F4118BF494292EA030F3FD068
:1017B000A2F1010241FA03FC10EB0C00C3F120037B
:1017C00001FA03F100F0004302D5494260EB40000A
:1017D000B0F5000F13D3B0F1807F06D340084FEA75
:1017E000310102F10102FE2A51D2B1F1004F40EB6A
:1017F000C25008BF20F0010040EA030070474900D2
:1018000040EB000010F4000FA2F10102EDD1B0FA9C
:1018100080FCACF1080CB2EB0C0200FA0CF0AABF91
:1018200000EBC25052421843BCBFD040184370472F
:1018300092F0000F81F4000106BF80F40000013235
:10184000013BB5E74FEA41037FEA226C18BF7FEA0C
:10185000236C21D092EA030F04D092F0000F08BF4E
:101860000846704790EA010F1CBF0020704712F035
:101870007F4F04D1400028BF40F00040704712F174
:1018800000723CBF00F50000704700F0004343F0D9
:10189000FE4040F4000070477FEA226216BF08460F
:1018A0007FEA23630146420206BF5FEA412390EAD2
:1018B000010F40F4800070474FF0000304E000BFC8
:1018C00010F0004348BF40425FEA000C08BF704779
:1018D00043F0964301464FF000001CE050EA01023D
:1018E00008BF70474FF000030AE000BF50EA010252
:1018F00008BF704711F0004302D5404261EB41013F
:101900005FEA010C02BF84460146002043F0B64363
:1019100008BFA3F18053A3F50003BCFA8CF2083A88
:10192000A3EBC25310DB01FA02FC634400FA02FC91
:10193000C2F12002BCF1004F20FA02F243EB020098
:1019400008BF20F00100704702F1200201FA02FCFA
:10195000C2F1200250EA4C0021FA02F243EB0200ED
:1019600008BF20EADC7070474FF0FF0C1CEAD05231
:101970001EBF1CEAD15392EA0C0F93EA0C0F6FD0F2
:101980001A4480EA010C400218BF5FEA41211ED0D0
:101990004FF0006343EA501043EA5111A0FB0131BC
:1019A0000CF00040B1F5000F3EBF490041EAD37191
:1019B0005B0040EA010062F17F02FD2A1DD8B3F10D
:1019C000004F40EBC25008BF20F00100704790F07C
:1019D000000F0CF0004C08BF49024CEA502040EACE
:1019E00051207F3AC2BFD2F1FF0340EAC250704794
:1019F00040F400004FF00003013A5DDC12F1190FD2
:101A0000DCBF00F000407047C2F10002410021FA43
:101A100002F1C2F1200200FA02FC5FEA310040F15B
:101A2000000053EA4C0308BF20EADC70704792F0D4
:101A3000000F00F0004C02BF400010F4000F013A0C
:101A4000F9D040EA0C0093F0000F01F0004C02BF07
:101A5000490011F4000F013BF9D041EA0C018FE776
:101A60000CEAD15392EA0C0F18BF93EA0C0F0AD07C
:101A700030F0004C18BF31F0004CD8D180EA0100A2
:101A800000F00040704790F0000F17BF90F0004F3B
:101A9000084691F0000F91F0004F14D092EA0C0F1D
:101AA00001D142020FD193EA0C0F03D14B0218BFB0
:101AB000084608D180EA010000F0004040F0FE40F6
:101AC00040F40000704740F0FE4040F44000704792
:101AD0004FF0FF0C1CEAD0521EBF1CEAD15392EA11
:101AE0000C0F93EA0C0F69D0A2EB030280EA010C01
:101AF00049024FEA402037D04FF0805343EA11119A
:101B000043EA10130CF000408B4238BF5B0042F1F7
:101B10007D024FF4000C8B4224BF5B1A40EA0C009C
:101B2000B3EB510F24BFA3EB510340EA5C00B3EBCE
:101B3000910F24BFA3EB910340EA9C00B3EBD10FBC
:101B400024BFA3EBD10340EADC001B0118BF5FEA0E
:101B50001C1CE0D1FD2A3FF650AF8B4240EBC25037
:101B600008BF20F0010070470CF0004C4CEA5020F8
:101B70007F32C2BFD2F1FF0340EAC250704740F447
:101B800000004FF00003013A37E792F0000F00F039
:101B9000004C02BF400010F4000F013AF9D040EAB7
:101BA0000C0093F0000F01F0004C02BF490011F44B
:101BB000000F013BF9D041EA0C0195E70CEAD15343
:101BC00092EA0C0F08D142027FF47DAF93EA0C0F2A
:101BD0007FF470AF084676E793EA0C0F04D14B020E
:101BE0003FF44CAF08466EE730F0004C18BF31F0C0
:101BF000004CCAD130F000427FF45CAF31F00043BA
:101C00007FF43CAF5FE700BF4FEA4002B2F1FE4F06
:101C10000FD34FF09E03B3EB12620DD94FEA0023AE
:101C200043F0004310F0004F23FA02F018BF404287
:101C300070474FF00000704712F1610F01D142026E
:101C400005D110F0004008BF6FF0004070474FF022
:101C50000000704770B50F4E0F4D761BB61018BFC1
:101C6000002405D0013455F8043B9847A642F9D129
:101C70000A4E0B4D00F060F9761BB61018BF002419
:101C800006D0013455F8043B9847A642F9D170BDFF
:101C900070BD00BF441F0800441F08004C1F08000F
:101CA000441F0800024B13B1024800F005B870470A
:101CB00000000000C51C0800002301461A46184613
:101CC00000F01EB838B50A4C0A4D641BA4100AD0A7
:101CD00004F18043013B05EB8305013C55F80439D1
:101CE0009847002CF9D1BDE8384000F02FB900BF6B
:101CF0005C1F0800581F0800704700BF704700BFF6
:101D00002DE9F8432C4D0646286898460F46914623
:101D1000FFF7F2FF294B1C68D4F84831002B3ED066
:101D20005A681F2A1CDC02F1010E76B1012103EB77
:101D30008204C4F88890D3F8880191400843022EA9
:101D4000C3F88801C4F8088123D00232C3F804E044
:101D5000286843F82270FFF7D1FF0020BDE8F88320
:101D6000174B0BB34FF4C870AFF300800346D8B1E4
:101D70000020D4F848114FF0010E58601960024657
:101D8000C4F84831C3F88801C3F88C01002EDCD0B8
:101D9000CCE7D3F88C010143C3F88C11D5E704F5E7
:101DA000A673C4F84831BBE72868FFF7A7FF4FF0D8
:101DB000FF30BDE8F88300BF30040020341F080066
:101DC0000000000043414E30206D6573736167650C
:101DD000206172726976656420696E206E6F6E2D67
:101DE00075736564206D61696C626F780A0D00001F
:101DF0006E6577206D6573736167653A200A0D0023
:101E00006D6573736167652069643A2025640A0D06
:101E1000000000006D657373616765206461746123
:101E2000206C656E6774683A2025640A0D6D6573D1
:101E30007361676520646174613A20002564200045
:101E40000A0A0D0067616D65206F7665720A0D00E4
:101E50006A6F7920737469636B3A2025640A0D00F8
:101E600043616C6962204D6F746F722044617461CC
:101E7000203A2025640A0D00504944203A20256468
:101E80000A0D00004F757470757420746F207265B0
:101E90006769737465723A202564200A0D0000009A
:101EA0006C6566743A2025640A0D000072696768E3
:101EB000743A2025640A0D00286E756C6C290000A8
:101EC0004552524F52212044757479206379636CD6
:101ED00065206F7574206F662072616E67652E20B5
:101EE0004D757374206265206265747765656E2038
:101EF0003120616E6420320A0D0000004552524FBD
:101F0000522120496E76616C696420706F73697428
:101F1000696F6E004552523A205541525420525832
:101F2000206275666665722069732066756C6C0A3E
:101F30000D00000008000020F8B500BFF8BC08BC88
:101F40009E467047A51C080019010800F8B500BF9F
:0C1F5000F8BC08BC9E467047F500080075
:101F5C000100000000093D0000000000F402002018
:101F6C005C030020C40300200000000000000000FF
:101F7C000000000000000000000000000000000055
:101F8C000000000000000000000000000000000045
:101F9C000000000000000000000000000000000035
:101FAC000000000000000000000000000000000025
:101FBC000000000000000000000000000000000015
:101FCC000000000000000000000000000000000005
:101FDC0000000000000000000000000000000000F5
:101FEC0000000000000000000000000000000000E5
:101FFC0000000000000000000000000000000000D5
:10200C0001000000000000000E33CDAB34126DE671
:10201C00ECDE05000B0000000000000000000000DA
:10202C0000000000000000000000000000000000A4
:10203C000000000000000000000000000000000094
:10204C000000000000000000000000000000000084
:10205C000000000000000000000000000000000074
:04238C00EC0400203D
:040000038000000079
:00000001FF
