:100000000C94B4010C94E8030C94D1010C94D1012C
:100010000C94D1010C94D1010C94D1010C94D10118
:100020000C94D1010C94D1010C94D1010C94D10108
:100030000C94D1010C94D1010C94D1010C94D101F8
:100040000C94D1010C94D1010C94D1010C94D101E8
:100050000C94D1010C94D1010C94D1010C94D101D8
:100060000C94D1010C94D1010C94D1010C94D101C8
:10007000000000000000000000065F5F06000000B6
:100080000007070007070000147F7F147F7F14001C
:10009000242E6B6B3A120000466630180C66620024
:1000A000307A4F5D377A48000407030000000000F3
:1000B000001C3E63410000000041633E1C00000044
:1000C000082A3E1C1C3E2A0808083E3E080800007C
:1000D00000A0E06000000000080808080808000010
:1000E00000006060000000006030180C0603010092
:1000F0003E7F594D7F3E000042427F7F40400000DE
:10010000627359496F660000226349497F360000D7
:10011000181C16137F7F1000276745457D390000A6
:100120003C7E4B4979300000036371190F070000D2
:10013000367F49497F360000064F49693F1E00005F
:1001400000006C6C0000000000A0EC6C00000000DF
:10015000081C366341000000141414141414000029
:10016000004163361C080000020351590F060000CD
:100170003E7F415D5D1F1E007C7E13137E7C000070
:10018000417F7F49497F36001C3E63414163220025
:10019000417F7F41637F1C00417F7F495D41630058
:1001A000417F7F491D0103001C3E63415173720072
:1001B0007F7F08087F7F000000417F7F41000000B3
:1001C000307040417F3F0100417F7F081C77630012
:1001D000417F7F41406070007F7F060C067F7F007B
:1001E0007F7F060C187F7F001C3E6341633E1C002E
:1001F000417F7F49090F06001E3F21717F5E00008D
:10020000417F7F19396F460026674D597B320000C8
:1002100003417F7F410300007F7F40407F7F0000DC
:100220001F3F60603F1F00007F7F3018307F7F00DE
:1002300063771C081C776300074F78784F0700002E
:100240006773594D47637100007F7F414100000093
:100250000103060C183060000041417F7F00000060
:10026000080C0603060C0800808080808080808057
:100270000000030704000000207454543C78400040
:10028000413F7F44447C3800387C44446C28000063
:10029000307848493F7F4000387C54545C18000057
:1002A000487E7F490302000098BCA4A4F87C0400A7
:1002B000417F7F08047C780000447D7D4000000081
:1002C00040C484FD7D000000417F7F10386C4400F5
:1002D00000417F7F400000007C7C0C180C7C780083
:1002E0007C7C04047C780000387C44447C3800002A
:1002F00084FCF8A4243C1800183C24A4F8FC8400D6
:10030000447C78441C180000485C54547424000059
:1003100000043E7F442400003C7C40403C7C400084
:100320001C3C60603C1C00003C7C6030607C3C00FD
:10033000446C3810386C44009CBCA0A0FC7C0000CD
:100340004C64745C4C64000008083E774141000036
:1003500000000077770000004141773E0808000068
:10036000020301030203010011241FBECFEFD4E0FA
:10037000DEBFCDBF13E0A0E0B1E0E4E3F0E202C0F5
:1003800005900D92A639B107D9F723E0A6E9B3E0AD
:1003900001C01D92A83AB207E1F70E94FD080C9433
:1003A00018100C9400008C9AEBE8F0E080818864CF
:1003B0008083EAE8F0E080818960808381E0809337
:1003C00087000895882341F0813041F0823041F068
:1003D000833039F493E805C090E803C091E801C088
:1003E00092E8E0910601F0910701908381E48A95FB
:1003F000F1F700C0E0910601F091070180810895B6
:100400000E94FE0463E08BE20E94E60461E088E261
:100410000E94E60465EB89E20E94E60463E48AE256
:100420000E94E6048AE20E94D8041F928F938CE017
:1004300091E09F938F930E94A40B89E20E94D804BD
:100440001F928F9386E191E09F938F930E94A40B5C
:1004500088E20E94D8041F928F9380E291E09F93DC
:100460008F930E94A40B60E08FE00E94E6048EE070
:100470000E94D804807E2DB73EB7245F3F4F0FB651
:10048000F8943EBF0FBE2DBF882321F08BE291E090
:100490000E94BA0BF89485B7826085BF8BB78064E1
:1004A0008BBF78940895BF92CF92DF92EF92FF9224
:1004B0000F931F93CF93DF93CDB7DEB72C970FB673
:1004C000F894DEBF0FBECDBF0E94300580FF33C061
:1004D00081E60E94D804C82E82E60E94D804D12C5E
:1004E000CC0CDD1CCC0CDD1CCC0CDD1C8295869567
:1004F0008770C82A85E60E94D804E82EF12C1E14C5
:100500001F04A4F400E010E0B12C86E68B0D0E94DD
:10051000D804E5E0F0E0EC0FFD1FE00FF11F808351
:10052000B3940B2D10E00E151F057CF340E061E045
:100530008CE20E9438050E94300581FF33C081E7BC
:100540000E94D804C82E82E70E94D804D12CCC0C7B
:10055000DD1CCC0CDD1CCC0CDD1C829586958770D7
:10056000C82A85E70E94D804E82EF12C1E141F0427
:10057000A4F400E010E0B12C86E78B0D0E94D804B3
:10058000E5E0F0E0EC0FFD1FE00FF11F8083B39476
:100590000B2D10E00E151F057CF340E062E08CE2AD
:1005A0000E94380586E591E09F938F930E94A40BEB
:1005B000DF92CF9286E691E09F938F930E94A40BE7
:1005C000FF92EF9287E791E09F938F930E94A40B95
:1005D0000FB6F894DEBF0FBECDBF1E141F04FCF48F
:1005E0008E010B5F1F4FCE018E0D9F1DFC013596B6
:1005F0007F010F2EFFE9CF2EF1E0DF2EF02DF80165
:1006000081918F011F928F93DF92CF920E94A40B52
:100610000F900F900F900F90E016F10681F783EA8C
:1006200091E09F938F930E94A40B0F900F902C96B4
:100630000FB6F894DEBF0FBECDBFDF91CF911F91F3
:100640000F91FF90EF90DF90CF90BF900895CF92E1
:10065000DF92EF92FF920F931F93CF93DF93CDB76B
:10066000DEB72C970FB6F894DEBF0FBECDBFE98280
:10067000FA820B831C832D833E834F8358876987BF
:100680007A878B879C87E980FA80CB80DC80B601F3
:1006900075956795759567957595679581E30E9442
:1006A000E6046C2D6295660F607E82E30E94E6048C
:1006B0006E2D85E30E94E6041E141F040CF05AC040
:1006C00080E090E010E0E5E0F0E0EC0FFD1FE80FC7
:1006D000F91F608186E3810F0E94E6041F5F812F6E
:1006E00090E08E159F057CF319C0F60181916F0192
:1006F0001F928F931F930F930E94A40B0F900F9044
:100700000F900F90CE14DF0481F783EA91E09F935E
:100710008F930E94A40B0F900F904BC080E00E941B
:100720000D0586E591E09F938F930E94A40BDF92C5
:10073000CF9286E691E09F938F930E94A40BFF9245
:10074000EF9287E791E09F938F930E94A40B6E0135
:10075000F5E0CF0ED11CCE018E0D9F1D9C012B5FAD
:100760003F4F79010FB6F894DEBF0FBECDBF0FE942
:1007700011E0BBCF80E00E940D0586E591E09F93DC
:100780008F930E94A40BDF92CF9286E691E09F9315
:100790008F930E94A40BFF92EF9287E791E09F93C3
:1007A0008F930E94A40B0FB6F894DEBF0FBECDBF8F
:1007B000ACCF2C960FB6F894DEBF0FBECDBFDF9145
:1007C000CF911F910F91FF90EF90DF90CF90089500
:1007D0001F920F920FB60F9211242F933F934F93B6
:1007E0005F936F937F938F939F93AF93BF93EF9399
:1007F000FF930E945302FF91EF91BF91AF919F91A0
:100800008F917F916F915F914F913F912F910F90B9
:100810000FBE0F901F901895DF92EF92FF920F93EB
:100820001F93CF93DF93D82E7B012FEF8FE791E0BB
:10083000215080409040E1F700C000C01616170616
:1008400074F4C0E0D0E000E010E08D2D0E94E201E1
:10085000080F111D2196EC16FD06B9F702C000E045
:1008600010E0C801B7010E94310BCB01DF91CF919D
:100870001F910F91FF90EF90DF900895CF92DF923C
:10088000EF92FF92CF93DF93EB01282F30E06217B6
:10089000730724F1682F70E080E090E00E94360A30
:1008A0006B017C01BE01DD0F880B990B0E94380A99
:1008B0009B01AC01C701B6010E948E0920E030E027
:1008C00048EC52E40E94C40A20E030E048EC52E4D4
:1008D0000E9421090E94000ACB0133C0682F70E0FA
:1008E00080E090E00E94360A9B01AC0160E070E07D
:1008F0008FE793E40E9421096B017C01BE01DD0FAB
:10090000880B990B0E94380A9B01AC0160E070E0F3
:100910008FE793E40E9421099B01AC01C701B60156
:100920000E948E0920E030E048EC52EC0E94C40A9C
:1009300020E030E048EC52E40E9422090E94000AC4
:10094000CB01DF91CF91FF90EF90DF90CF90089592
:1009500081B381BB80B3817090E00895EF92FF92E4
:100960000F931F93CF93DF93CDB7DEB72C970FB6BE
:10097000F894DEBF0FBECDBF362F522F602F91E00F
:10098000092F95E0E92EF12C10E0282F7A858B8530
:100990009C850E9427032C960FB6F894DEBF0FBEED
:1009A000CDBFDF91CF911F910F91FF90EF900895F0
:1009B000CF93C82FC49883E00E94ED088C2F0E942B
:1009C000ED080E94F108C49ACF910895CF93DF9368
:1009D000D82FC62FC49882E00E94ED088D2F0E9468
:1009E000ED088C2F0E94ED08C49ADF91CF910895F5
:1009F000C49880EC0E94ED08C49A08950E94E20811
:100A00000E94F8048EE00E94D804807E803821F095
:100A100087EA91E00E94BA0B0895C498813051F0A2
:100A200028F0823059F0893069F010C081E80E94C6
:100A3000ED0814C082E80E94ED0810C084E80E940E
:100A4000ED080CC087E80E94ED0808C089ED91E030
:100A50009F938F930E94A40B0F900F90C49A0895B8
:100A6000C49880EA0E94ED080E94F108C49A089593
:100A70001F93CF93DF93182FD62FC42FC49885E0F0
:100A80000E94ED08812F0E94ED088D2F0E94ED0835
:100A90008C2F0E94ED08C49ADF91CF911F91089589
:100AA0000E94DE0760E080E00E94C4088EE30E949E
:100AB00093086FE080E00E94C40887EF91E00E94F5
:100AC000D3086FE082E00E94C40882E092E00E94B6
:100AD000D3086FE084E00E94C4088DE092E00E9499
:100AE000D3086FE086E00E94C4088AE192E00E9489
:100AF000D30810929D0310929C0308950F2EF9E2E3
:100B0000EF2EF2E0FF2EF02D80E00E94E201C82ED1
:100B1000D12C1F928F93FF92EF920E94A40B81E041
:100B20000E94E201C82F0E94A8040091980310912E
:100B3000990320919A0330919B036C2F70E0AC01D4
:100B4000C6010E94AE0483ED90E30197F1F700C067
:100B500000000F900F900F900F90D6CFEF92FF9262
:100B60000F931F93CF93DF93CDB7DEB72A970FB6BE
:100B7000F894DEBF0FBECDBF8C010E94DE071F932D
:100B80000F9386E493E09F938F930E94A40B0F90A2
:100B90000F900F900F9001151105C1F481E090E0C6
:100BA00090939703809396036FE080E00E94C408BF
:100BB00084E492E00E94D3086FE082E00E94C408BF
:100BC00082E592E00E94D3080E947E050230110562
:100BD00049F46FE080E00E94C40881E692E00E9440
:100BE000D308A7C00430110509F041C060E080E0DF
:100BF0000E94C40889E692E00E94D3086FE081E079
:100C00000E94C40886E792E00E94D30860E082E078
:100C10000E94C40882E892E00E94D30860E083E06A
:100C20000E94C4088FE892E00E94D30860E084E04C
:100C30000E94C40886E992E00E94D3086FE085E034
:100C40000E94C40882EA92E00E94D30860E086E035
:100C50000E94C4088CEA92E00E94D3086FE087E00B
:100C60000E94C4088CEB92E00E94D30862C0063058
:100C7000110509F05EC06FE080E00E94C40882ECBC
:100C800092E00E94D308809199038F9380919803FA
:100C90008F9380919B038F9380919A038F9380ED24
:100CA00092E09F938F930E94A40B6FE082E00E94DA
:100CB000C4088FED92E00E94D3086FE083E00E94A9
:100CC000C40880919B038F9380919A038F930F2E7A
:100CD000FAEEEF2EF2E0FF2EF02DFF92EF928E0152
:100CE0000F5F1F4F1F930F930E94EA0BC8010E94D2
:100CF000D3086FE084E00E94C4088DEE92E00E9469
:100D0000D3086FE085E00E94C408809199038F9317
:100D1000809198038F93FF92EF921F930F930E94FD
:100D2000EA0BC8010E94D3080FB6F894DEBF0FBECD
:100D3000CDBF0E94A8062A960FB6F894DEBF0FBE5C
:100D4000CDBFDF91CF911F910F91FF90EF9008954C
:100D50006F927F928F929F92AF92BF92CF92DF92CB
:100D6000EF92FF920F931F93CF93DF93809196039F
:100D700090919703892B09F0FBC080919D038F937D
:100D800080919C038F9388EF92E09F938F930E94B2
:100D9000A40B0F900F900F900F90C7E1D3E00F2E90
:100DA000FEE3CF2EF3E0DF2EF02D0CE913E00F2E43
:100DB000FFE4EF2EF3E0FF2EF02D0F2EF6E08F2E46
:100DC000912CF02D0F2EF1E7AF2EF3E0BF2EF02D7A
:100DD00080E00E94E201682E81E00E94E201782E0C
:100DE0001F928F931F926F92DF93CF930E94A40B59
:100DF00060919A0370919B03862D0E943E040F9090
:100E00000F900F900F900F900F90863A9F4F5CF4C9
:100E10000E945005FFE32DE083E0F1502040804028
:100E2000E1F700C0000060919A0370919B03862D4A
:100E30000E943E048B359105ECF080919D038F93C9
:100E400080919C038F93DF92CF920E94A40B80919C
:100E50009C0390919D030E94AE059FE3EDE0F3E0BB
:100E60009150E040F040E1F700C000000F900F907B
:100E70000F900F906091980370919903872D0E94B5
:100E80003E048B3591059CF160E0F80180810E9461
:100E9000CD0880919C0390919D0302972AF0909336
:100EA0009D0380939C0304C090929D0380929C03B9
:100EB00080919D038F9380919C038F93FF92EF927B
:100EC0000E94A40B60E0F80180810E94C4088EE3B8
:100ED0000E949308FFE32DE083E0F1502040804022
:100EE000E1F700C000000F900F900F900F906091FD
:100EF000980370919903872D0E943E04863A9F4F74
:100F00000CF066CF60E0F80180810E94CD088091EE
:100F10009C0390919D030296873091052CF4909349
:100F20009D0380939C0304C010929D0310929C0328
:100F300080919D038F9380919C038F93BF92AF927A
:100F40000E94A40B60E0F80180810E94C4088EE337
:100F50000E949308FFE32DE083E0F15020408040A1
:100F6000E1F700C000000F900F900F900F9030CF6E
:100F7000DF91CF911F910F91FF90EF90DF90CF9075
:100F8000BF90AF909F908F907F906F9008956AE090
:100F900070E080E00E940C0490939B0380939A037E
:100FA0006AE070E081E00E940C04909399038093C2
:100FB00098030E9450050E94A806089520EBE09136
:100FC0000A01F0910B01208380E890E0E091080194
:100FD000F091090110820197C9F72F5F283B79F73B
:100FE0000895E0910A01F0910B018EEA8083E0916F
:100FF0000A01F0910B0181EA8083E0910A01F091EE
:101000000B018AED8083E0910A01F0910B0182E1EE
:101010008083E0910A01F0910B0188EC8083E091DC
:101020000A01F0910B0188EA8083E0910A01F091B6
:101030000B018FE38083E0910A01F0910B0185EDB4
:101040008083E0910A01F0910B0180E88083E091B8
:101050000A01F0910B0181E88083E0910A01F0918F
:101060000B0180E58083E0910A01F0910B0189ED8D
:101070008083E0910A01F0910B0181E28083E0918D
:101080000A01F0910B0180E28083E0910A01F09166
:101090000B0182E08083E0910A01F0910B018BED5E
:1010A0008083E0910A01F0910B0180E38083E0915D
:1010B0000A01F0910B018DEA8083E0910A01F09121
:1010C0000B011082E0910A01F0910B0184EA808308
:1010D000E0910A01F0910B0186EA8083E0910A0118
:1010E000F0910B018FEA808330EB2FEFE0910A0142
:1010F000F0910B01308380E890E0E0910801F091DD
:10110000090120830197C9F73F5F383B79F72FEF3B
:101110008FE797E0215080409040E1F700C0000049
:101120000E94DE070895282F30E0F901EE0FFF1F1F
:10113000EE0FFF1FEE0FFF1FE059F040220F331F8D
:10114000220F331F220F331F285830409491A09153
:101150000801B09109019C933196E217F307B1F7AA
:1011600008958055E0910A01F0910B018083089564
:10117000E0910A01F0910B018083E0910A01F09166
:101180000B0180E180830895CF93C62F0E94B108A0
:101190008C2F0E94B808CF9108950E94C40880E265
:1011A0000E9493080895CF93DF93EC0188818823F0
:1011B00031F021960E94930889918111FBCFDF9134
:1011C000CF91089587B3806B87BBBE988DB1816541
:1011D0008DB96B986A98C49A08958FB9779BFECFA2
:1011E000089581E60E94ED088FB1089585B7806863
:1011F00085BF80B7806280BF08958FE190E00E9434
:1012000012096DE179E089E199E00E94590B0E9491
:10121000D3010E94F6080E9400020E94F1070E947A
:10122000C707FDCF9CBF80B988E181B98EE88CBF2C
:101230000895159BFECF83B90895179BFECF83B108
:1012400008955058BB27AA270E9439090C948A0A8E
:101250000E947C0A38F00E94830A20F039F49F3FF4
:1012600019F426F40C94790A0EF4E095E7FB0C943B
:10127000730AE92F0E949B0A58F3BA176207730793
:101280008407950720F079F4A6F50C94BD0A0EF4B6
:10129000E0950B2EBA2FA02D0B01B90190010C0186
:1012A000CA01A0011124FF27591B99F0593F50F49E
:1012B000503E68F11A16F040A22F232F342F4427F6
:1012C000585FF3CF469537952795A795F0405395EE
:1012D000C9F77EF41F16BA0B620B730B840BBAF0BE
:1012E0009150A1F0FF0FBB1F661F771F881FC2F729
:1012F0000EC0BA0F621F731F841F48F4879577953D
:101300006795B795F7959E3F08F0B0CF9395880FF6
:1013100008F09927EE0F9795879508950E94A209E6
:101320000C948A0A0E94830A58F00E947C0A40F0BA
:1013300029F45F3F29F00C94730A51110C94BE0AF2
:101340000C94790A0E949B0A68F39923B1F3552300
:1013500091F3951B550BBB27AA27621773078407C8
:1013600038F09F5F5F4F220F331F441FAA1FA9F35E
:1013700035D00E2E3AF0E0E832D091505040E6954C
:10138000001CCAF72BD0FE2F29D0660F771F881FAD
:10139000BB1F261737074807AB07B0E809F0BB0BA0
:1013A000802DBF01FF2793585F4F3AF09E3F5105B4
:1013B00078F00C94730A0C94BE0A5F3FE4F3983EF5
:1013C000D4F3869577956795B795F7959F5FC9F79D
:1013D000880F911D9695879597F90895E1E0660F1E
:1013E000771F881FBB1F621773078407BA0720F097
:1013F000621B730B840BBA0BEE1F88F7E095089500
:101400000E94070A6894B1110C94BE0A08950E94C4
:10141000A30A88F09F5798F0B92F9927B751B0F0D9
:10142000E1F0660F771F881F991F1AF0BA95C9F768
:1014300014C0B13091F00E94BD0AB1E008950C943F
:10144000BD0A672F782F8827B85F39F0B93FCCF3F2
:10145000869577956795B395D9F73EF490958095E5
:10146000709561957F4F8F4F9F4F0895E89409C005
:1014700097FB3EF490958095709561957F4F8F4FC7
:101480009F4F9923A9F0F92F96E9BB279395F695DD
:10149000879577956795B795F111F8CFFAF4BB0F5B
:1014A00011F460FF1BC06F5F7F4F8F4F9F4F16C0BF
:1014B000882311F096E911C0772321F09EE8872F49
:1014C000762F05C0662371F096E8862F70E060E005
:1014D0002AF09A95660F771F881FDAF7880F96957E
:1014E000879597F9089597F99F6780E870E060E025
:1014F00008959FEF80EC089500240A9416161706AD
:1015000018060906089500240A94121613061406F4
:1015100005060895092E0394000C11F4882352F057
:10152000BB0F40F4BF2B11F460FF04C06F5F7F4F0F
:101530008F4F9F4F089557FD9058440F551F59F0F6
:101540005F3F71F04795880F97FB991F61F09F3FB0
:1015500079F087950895121613061406551FF2CFD9
:101560004695F1DF08C0161617061806991FF1CF29
:1015700086957105610508940895E894BB27662750
:101580007727CB0197F908950E94D70A0C948A0A0D
:101590000E947C0A38F00E94830A20F0952311F003
:1015A0000C94730A0C94790A11240C94BE0A0E94BC
:1015B0009B0A70F3959FC1F3950F50E0551F629FF2
:1015C000F001729FBB27F00DB11D639FAA27F00D9C
:1015D000B11DAA1F649F6627B00DA11D661F829FC3
:1015E0002227B00DA11D621F739FB00DA11D621FA8
:1015F000839FA00D611D221F749F3327A00D611DC5
:10160000231F849F600D211D822F762F6A2F1124A6
:101610009F5750409AF0F1F088234AF0EE0FFF1FD9
:10162000BB1F661F771F881F91505040A9F79E3F30
:10163000510580F00C94730A0C94BE0A5F3FE4F3EA
:10164000983ED4F3869577956795B795F795E79586
:101650009F5FC1F7FE2B880F911D9695879597F98F
:10166000089597FB072E16F4009407D077FD09D054
:101670000E94450B07FC05D03EF4909581959F4F45
:101680000895709561957F4F0895AA1BBB1B51E18A
:1016900007C0AA1FBB1FA617B70710F0A61BB70BE2
:1016A000881F991F5A95A9F780959095BC01CD0187
:1016B00008950F931F93CF93DF93009731F4611533
:1016C000710519F480E090E03AC08B01EC016EE006
:1016D00070E081E090E00E94ED0DFC01892B91F318
:1016E00080E883830115110571F01387028781E873
:1016F000838380919E0390919F03892B21F4F09323
:101700009F03E0939E032097C9F0D187C087838110
:10171000826083838091A0039091A103892B71F44F
:10172000F093A103E093A0038091A2039091A303FF
:10173000892B21F4F093A303E093A203CF01DF915F
:10174000CF911F910F910895A0E0B0E0EAEAFBE08D
:101750000C94F10FAE014B5F5F4FFA0161917191F3
:10176000AF018091A0039091A1030E940C0CE2E0D4
:101770000C940D100F931F93CF93DF93E091A00370
:10178000F091A103238121FF1BC08C01D0E0C0E0B8
:10179000F80181918F016091A0037091A103DB0199
:1017A0001896ED91FC911997882331F00995892BB2
:1017B00079F3DFEFCFEFECCF8AE00995892B19F0B1
:1017C0008FEF9FEF02C08D2F9C2FDF91CF911F9144
:1017D0000F910895AEE0B0E0E0EFFBE00C94EF0F66
:1017E0000D891E8986E08C831A8309838FEF9FE71A
:1017F0009E838D83AE01475E5F4F6F89788DCE01EA
:1018000001960E940C0CEF81F885E00FF11F108209
:101810002E96E4E00C940B10ABE0B0E0E2E1FCE0CB
:101820000C94E10F6C017B018A01FC011782168286
:10183000838181FFCCC1CE0101963C01F6019381E9
:10184000F70193FD859193FF81917F01882309F42E
:10185000BAC1853239F493FD859193FF81917F015F
:10186000853229F4B60190E00E94470FE7CF912C12
:10187000212C312CFFE1F315D8F08B3279F038F4BC
:10188000803279F08332A1F4232D20611DC08D3286
:1018900061F0803369F4232D216016C0832D8260AE
:1018A000382EE32DE4603E2E2AC0F32DF8601DC0D3
:1018B00037FC2DC020ED280F2A3040F08E32B9F4CD
:1018C00036FC81C1232D2064322E19C036FE06C09D
:1018D0008AE0989E200D1124922E11C0EAE02E9EDF
:1018E000200D1124222EF32DF0623F2E08C08C36DD
:1018F00021F4832D8068382E02C0883641F4F70128
:1019000093FD859193FF81917F018111B3CF982F32
:101910009F7D9554933028F40C5F1F4F9FE399836C
:101920000DC0833631F0833771F0833509F059C02B
:1019300021C0F801808189830E5F1F4F8824839422
:10194000912C530113C02801F2E04F0E511CF801F5
:10195000A080B18036FE03C0692D70E002C06FEF39
:101960007FEFC5010E943C0F4C018201F32DFF77F0
:101970003F2E16C0280122E0420E511CF801A08023
:10198000B18036FE03C0692D70E002C06FEF7FEFBB
:10199000C5010E942A0F4C01F32DF0683F2E8201F1
:1019A00033FC1BC0822D90E088169906B0F4B60176
:1019B00080E290E00E94470F2A94F4CFF50137FCB3
:1019C000859137FE81915F01B60190E00E94470F3B
:1019D00021102A9421E0821A91088114910471F750
:1019E000E8C0843611F0893641F5F80137FE07C0AA
:1019F00060817181828193810C5F1F4F08C060817B
:101A00007181072E000C880B990B0E5F1F4FF32D71
:101A1000FF763F2E97FF09C0909580957095619550
:101A20007F4F8F4F9F4FF0683F2E2AE030E0A30199
:101A30000E94830F882E861845C0853731F4232DE8
:101A40002F7EB22E2AE030E025C0932D997FB92E4B
:101A50008F36C1F018F4883579F0B5C0803719F0A9
:101A6000883721F0B0C0E92FE061BE2EB4FE0DC072
:101A7000FB2DF460BF2E09C034FE0AC0292F26605A
:101A8000B22E06C028E030E005C020E130E002C000
:101A900020E132E0F801B7FE07C0608171818281E8
:101AA00093810C5F1F4F06C06081718180E090E0E0
:101AB0000E5F1F4FA3010E94830F882E8618FB2DF7
:101AC000FF773F2E36FE0DC0232D2E7FA22E8914C8
:101AD00058F434FE0BC032FC09C0832D8E7EA82E34
:101AE00005C0B82CA32C03C0B82C01C0B92CA4FE8F
:101AF0000FC0FE01E80DF11D8081803321F49A2D85
:101B0000997EA92E09C0A2FE06C0B394B39404C066
:101B10008A2D867809F0B394A3FC11C0A0FE06C0FC
:101B2000B21488F4280C922C9B180EC0B21460F4E6
:101B3000B60180E290E00E94470FB394F7CFB21451
:101B400018F42B1802C0982C212CA4FE10C0B6014A
:101B500080E390E00E94470FA2FE17C0A1FC03C0E3
:101B600088E790E002C088E590E0B6010CC08A2DBD
:101B7000867859F0A1FE02C08BE201C080E2A7FC8A
:101B80008DE2B60190E00E94470F891438F4B60147
:101B900080E390E00E94470F9A94F7CF8A94F30174
:101BA000E80DF11D8081B60190E00E94470F811081
:101BB000F5CF222009F442CEB60180E290E00E94E7
:101BC000470F2A94F6CFF6018681978102C08FEFE6
:101BD0009FEF2B96E2E10C94FD0F0F931F93CF9391
:101BE000DF93869F8001879F100D969F100D112413
:101BF000C8010E94090EEC01009729F0A80160E0DD
:101C000070E00E94350FCE01DF91CF911F910F91AF
:101C100008950F931F93CF93DF938230910510F4B3
:101C200082E090E0E091A603F091A70320E030E08D
:101C3000A0E0B0E0309719F1408151810281138119
:101C400048175907C8F08417950769F4109731F0C1
:101C500012960C93129713961C9327C00093A60319
:101C60001093A70322C02115310519F0421753071D
:101C700018F49A01BD01EF01DF01F801DBCF211556
:101C80003105F9F0281B390B2430310580F48A81A5
:101C90009B816115710521F0FB019383828304C050
:101CA0009093A7038093A603FE01329644C0FE01E1
:101CB000E20FF31F819391932250310939832883D6
:101CC0003AC02091A4033091A503232B41F4209125
:101CD0000201309103013093A5032093A4032091C6
:101CE0000001309101012115310541F42DB73EB7B6
:101CF0004091040150910501241B350BE091A40390
:101D0000F091A503E217F307A0F42E1B3F0B281751
:101D1000390778F0AC014E5F5F4F2417350748F064
:101D20004E0F5F1F5093A5034093A403819391939B
:101D300002C0E0E0F0E0CF01DF91CF911F910F9161
:101D40000895CF93DF93009709F481C0FC01329787
:101D500013821282A091A603B091A703109781F479
:101D600020813181820F931F2091A4033091A5031C
:101D70002817390751F5F093A503E093A40367C032
:101D8000ED0120E030E0CE17DF0740F44A815B81AF
:101D90009E0141155105F1F0EA01F5CFD383C283CD
:101DA00040815181840F951FC817D90759F4888144
:101DB0009981840F951F0296918380838A819B81EC
:101DC000938382832115310529F4F093A703E093CF
:101DD000A6033DC0E901FB83EA8349915991C40FF1
:101DE000D51FEC17FD0761F480819181840F951F49
:101DF0000296E90199838883828193819B838A83F8
:101E0000E0E0F0E012968D919C911397009719F005
:101E1000FD01DC01F7CF8D919C9111979D012E5F03
:101E20003F4F820F931F2091A4033091A5032817E1
:101E3000390769F4309729F41092A7031092A6038A
:101E400002C013821282B093A503A093A403DF9172
:101E5000CF910895FC010590615070400110D8F7B2
:101E6000809590958E0F9F1F0895DC0101C06D93A2
:101E700041505040E0F70895FC01615070400190DE
:101E80000110D8F7809590958E0F9F1F08950F939E
:101E90001F93CF93DF93FB01238121FD03C08FEFBD
:101EA0009FEF2CC022FF16C04681578124813581C7
:101EB0004217530744F4A081B1819D012F5F3F4F2A
:101EC000318320838C93268137812F5F3F4F378367
:101ED000268314C08B01EC01FB010084F185E02D09
:101EE0000995892BE1F6D80116968D919C9117974B
:101EF000019617969C938E931697CE01DF91CF9102
:101F00001F910F910895FA01AA27283051F120312D
:101F100081F1E8946F936E7F6E5F7F4F8F4F9F4F7D
:101F2000AF4FB1E03ED0B4E03CD0670F781F891FBF
:101F30009A1FA11D680F791F8A1F911DA11D6A0F8D
:101F4000711D811D911DA11D20D009F468943F9140
:101F50002AE0269F11243019305D3193DEF6CF013F
:101F60000895462F4770405D4193B3E00FD0C9F705
:101F7000F6CF462F4F70405D4A3318F0495D31FD72
:101F80004052419302D0A9F7EACFB4E0A6959795C5
:101F9000879577956795BA95C9F70097610571059B
:101FA00008959B01AC010A2E0694579547953795E5
:101FB0002795BA95C9F7620F731F841F951FA01D3F
:101FC00008952F923F924F925F926F927F928F92DD
:101FD0009F92AF92BF92CF92DF92EF92FF920F93B8
:101FE0001F93CF93DF93CDB7DEB7CA1BDB0B0FB6C2
:101FF000F894DEBF0FBECDBF09942A88398848887F
:102000005F846E847D848C849B84AA84B984C88414
:10201000DF80EE80FD800C811B81AA81B981CE0F0B
:10202000D11D0FB6F894DEBF0FBECDBFED010895F0
:04203000F894FFCF52
:102034000000A8032000001400120010636E663133
:102044003A25640D0A00636E66323A25640D0A006F
:10205400636E66333A25640D0A0A004D43503235E7
:102064003135206973204E4F5420696E206E6F7293
:102074006D616C206D6F6465206166746572207299
:102084006573657421006E6577206D657373616790
:10209400653A200A0D006D65737361676520696494
:1020A4003A2025640A0D006D6573736167652064C9
:1020B400617461206C656E6774683A2025640A0D4A
:1020C4006D65737361676520646174613A200025EE
:1020D4006420000A0A0D004D435032353135206921
:1020E40073204E4F5420696E20636F6E6669677566
:1020F400726174696F6E206D6F64652061667465CA
:102104007220726573657421004E6F7420612076AD
:10211400616C696420656E7472790A0D2074727939
:1021240020616761696E0053746172742047616D48
:1021340065004272696768746E65737300496E73F3
:102144007472756374696F6E7300446973706C6143
:10215400792043656E7465720061646320686F72F0
:10216400697A6F6E74616C2076616C75653A2025AE
:10217400640A0D0052454144592053455420474FA9
:10218400210050494E4720504F4E472054494D4559
:10219400005468652073756E00302E4A6F79207282
:1021A400696768743A0073656C6563742069746563
:1021B4006D00312E53746172742067616D65003255
:1021C4002E506C617900332E49662073636F7265FB
:1021D4003A007072657373206A6F7900342E496611
:1021E4002067616D65206F7665723A00726573656C
:1021F400740043656E7465722076616C7565730056
:10220400783A2025642C20793A2025640A0D005858
:102214002063656E7465723A20002564005920635A
:10222400656E7465723A200063757272656E74200F
:10223400726F77206265666F7265207768696C6576
:102244003A2025640D0A0061646320686F72697A1C
:102254006F6E74616C3A2025642C2061646320766F
:102264006572746963616C3A2025640A0D006375B4
:102274007272656E7420726F772025640D0A006394
:10228400757272656E7420726F7720616674657200
:10229400206D6F76696E672075703A2025640D0A8B
:1022A4000063757272656E7420726F772061667454
:1022B4006572206D6F76696E6720646F776E3A2061
:0622C40025640D0A000074
:00000001FF
