:100000000C9438000C94E8010C9455000C945500A5
:100010000C9455000C9455000C9455000C9455000C
:100020000C9455000C9455000C9455000C945500FC
:100030000C9455000C9455000C9455000C945500EC
:100040000C9455000C9455000C9455000C945500DC
:100050000C9455000C9455000C9455000C945500CC
:100060000C9455000C9455000C9455000C945500BC
:1000700011241FBECFEFD4E0DEBFCDBF11E0A0E062
:10008000B1E0EEE2FFE002C005900D92AC3EB10798
:10009000D9F721E0ACEEB1E001C01D92A63FB20756
:1000A000E1F70E94C9020C9495070C9400008C9A09
:1000B000EBE8F0E0808188648083EAE8F0E080810A
:1000C0008960808381E0809387000895882341F0D0
:1000D000813041F0823041F0833039F493E805C03B
:1000E00090E803C091E801C092E8E0910601F09128
:1000F0000701908381E48A95F1F700C0E091060141
:10010000F0910701808108950E945C0263E08BE218
:100110000E94440261E088E20E94440265EB89E2A9
:100120000E94440263E48AE20E9444028AE20E943E
:1001300036021F928F9388E091E09F938F930E94E5
:10014000430389E20E9436021F928F9382E191E07D
:100150009F938F930E94430388E20E9436021F926E
:100160008F938CE191E09F938F930E94430360E013
:100170008FE00E9444028EE00E943602807E2DB7FE
:100180003EB7245F3F4F0FB6F8943EBF0FBE2DBF62
:10019000882321F087E291E00E945903F89485B703
:1001A000826085BF8BB780648BBF78940895AF92CF
:1001B000BF92CF92DF92FF920F931F93CF93DF9363
:1001C000CDB7DEB72C970FB6F894DEBF0FBECDBF0C
:1001D0000E948E0280FF33C081E60E943602A82E64
:1001E00082E60E943602B12CAA0CBB1CAA0CBB1CD6
:1001F000AA0CBB1C829586958770A82A85E60E946A
:100200003602C82ED12C1C141D04A4F400E010E00A
:10021000F12C86E68F0D0E943602E5E0F0E0EC0F4F
:10022000FD1FE00FF11F8083F3940F2D10E00C15DC
:100230001D057CF340E061E08CE20E9496020E9482
:100240008E0281FF33C081E70E943602A82E82E72A
:100250000E943602B12CAA0CBB1CAA0CBB1CAA0C17
:10026000BB1C829586958770A82A85E70E94360276
:10027000C82ED12C1C141D04A4F400E010E0F12CB5
:1002800086E78F0D0E943602E5E0F0E0EC0FFD1FDF
:10029000E00FF11F8083F3940F2D10E00C151D0566
:1002A0007CF340E062E08CE20E949602BF92AF9243
:1002B000DF92CF928D811F928F9382E591E09F9381
:1002C0008F930E9443030FB6F894DEBF0FBECDBFDD
:1002D0002C960FB6F894DEBF0FBECDBFDF91CF9145
:1002E0001F910F91FF90DF90CF90BF90AF90089536
:1002F000CF92DF92EF92FF920F931F93CF93DF93F2
:10030000CDB7DEB72C970FB6F894DEBF0FBECDBFCA
:10031000E982FA820B831C832D833E834F835887A7
:1003200069877A878B879C87E980FA80CB80DC801D
:10033000B60175956795759567957595679581E390
:100340000E9444026C2D6295660F607E82E30E94DB
:1003500044026E2D85E30E9444021E141F04A4F47F
:1003600080E090E010E0E5E0F0E0EC0FFD1FE80F2A
:10037000F91F608186E3810F0E9444021F5F812F75
:1003800090E08E159F057CF380E00E946B02DF9267
:10039000CF92FF92EF928D811F928F9382E791E02F
:1003A0009F938F930E9443030FB6F894DEBF0FBE56
:1003B000CDBF2C960FB6F894DEBF0FBECDBFDF9138
:1003C000CF911F910F91FF90EF90DF90CF90089504
:1003D0001F920F920FB60F9211242F933F934F93BA
:1003E0005F936F937F938F939F93AF93BF93EF939D
:1003F000FF930E94D700FF91EF91BF91AF919F9122
:100400008F917F916F915F914F913F912F910F90BD
:100410000FBE0F901F901895EF92FF920F931F93AE
:10042000CF93DF93CDB7DEB72C970FB6F894DEBF2E
:100430000FBECDBF91E0092FE92EF12C10E0282F3F
:100440003E814F81588569857A858B859C850E9480
:1004500078012C960FB6F894DEBF0FBECDBFDF91AA
:10046000CF911F910F91FF90EF900895CF93C82FD8
:10047000C49883E00E94B9028C2F0E94B9020E94A6
:10048000BD02C49ACF910895CF93DF93D82FC62F82
:10049000C49882E00E94B9028D2F0E94B9028C2F6D
:1004A0000E94B902C49ADF91CF910895C49880EC5C
:1004B0000E94B902C49A08950E94AE020E94560298
:1004C0008EE00E943602807E803821F08CE991E037
:1004D0000E9459030895C498813051F028F0823069
:1004E00059F0893069F010C081E80E94B90214C047
:1004F00082E80E94B90210C084E80E94B9020CC0D0
:1005000087E80E94B90208C08EEC91E09F938F9318
:100510000E9443030F900F90C49A0895C49880EAF4
:100520000E94B9020E94BD02C49A08951F93CF93FE
:10053000DF93182FD62FC42FC49885E00E94B902EC
:10054000812F0E94B9028D2F0E94B9028C2F0E9428
:10055000B902C49ADF91CF911F91089587B3806B40
:1005600087BBBE988DB181658DB96B986A98C49A26
:1005700008958FB9779BFECF089581E60E94B90256
:100580008FB1089585B7806885BF80B7806280BFCE
:1005900008958FE190E00E94E90264EF72E080EF3D
:1005A00092E00E94F8020E9457000E94C2020E943C
:1005B000840080E00E94660090E00E940C022FEF11
:1005C0008FEF9EE0215080409040E1F700C0000096
:1005D000F0CF9CBF80B988E181B98EE88CBF0895C7
:1005E000159BFECF83B90895179BFECF83B1089565
:1005F0000F931F93CF93DF93009731F4611571052B
:1006000019F480E090E03AC08B01EC016EE070E0FC
:1006100081E090E00E946A05FC01892B91F380E85B
:1006200083830115110571F01387028781E88383A5
:100630008091EC019091ED01892B21F4F093ED0173
:10064000E093EC012097C9F0D187C0878381826055
:1006500083838091EE019091EF01892B71F4F093E7
:10066000EF01E093EE018091F0019091F101892B6F
:1006700021F4F093F101E093F001CF01DF91CF91EC
:100680001F910F910895A0E0B0E0E9E4F3E00C942D
:100690006E07AE014B5F5F4FFA0161917191AF013F
:1006A0008091EE019091EF010E948903E2E00C94A9
:1006B0008A070F931F93CF93DF93E091EE01F091A0
:1006C000EF01238121FF1BC08C01D0E0C0E0F801C5
:1006D00081918F016091EE017091EF01DB0118961D
:1006E000ED91FC911997882331F00995892B79F3C5
:1006F000DFEFCFEFECCF8AE00995892B19F08FEF70
:100700009FEF02C08D2F9C2FDF91CF911F910F91F2
:100710000895ABE0B0E0EFE8F3E00C945E076C0105
:100720007B018A01FC0117821682838181FFCCC183
:10073000CE0101963C01F6019381F70193FD85916D
:1007400093FF81917F01882309F4BAC1853239F47E
:1007500093FD859193FF81917F01853229F4B60144
:1007600090E00E94C406E7CF912C212C312CFFE1B0
:10077000F315D8F08B3279F038F4803279F0833287
:10078000A1F4232D20611DC08D3261F0803369F406
:10079000232D216016C0832D8260382EE32DE46066
:1007A0003E2E2AC0F32DF8601DC037FC2DC020ED71
:1007B000280F2A3040F08E32B9F436FC81C1232D47
:1007C0002064322E19C036FE06C08AE0989E200DA5
:1007D0001124922E11C0EAE02E9E200D1124222E0B
:1007E000F32DF0623F2E08C08C3621F4832D8068F3
:1007F000382E02C0883641F4F70193FD859193FFAE
:1008000081917F018111B3CF982F9F7D95549330B3
:1008100028F40C5F1F4F9FE399830DC0833631F09E
:10082000833771F0833509F059C021C0F801808108
:1008300089830E5F1F4F88248394912C530113C02A
:100840002801F2E04F0E511CF801A080B18036FE65
:1008500003C0692D70E002C06FEF7FEFC5010E94F9
:10086000B9064C018201F32DFF773F2E16C02801F7
:1008700022E0420E511CF801A080B18036FE03C078
:10088000692D70E002C06FEF7FEFC5010E94A706DF
:100890004C01F32DF0683F2E820133FC1BC0822DEA
:1008A00090E088169906B0F4B60180E290E00E94CC
:1008B000C4062A94F4CFF50137FC859137FE819167
:1008C0005F01B60190E00E94C40621102A9421E045
:1008D000821A91088114910471F7E8C0843611F0EE
:1008E000893641F5F80137FE07C060817181828148
:1008F00093810C5F1F4F08C060817181072E000C2F
:10090000880B990B0E5F1F4FF32DFF763F2E97FF3D
:1009100009C090958095709561957F4F8F4F9F4F3F
:10092000F0683F2E2AE030E0A3010E940007882EE5
:10093000861845C0853731F4232D2F7EB22E2AE04C
:1009400030E025C0932D997FB92E8F36C1F018F471
:10095000883579F0B5C0803719F0883721F0B0C0FC
:10096000E92FE061BE2EB4FE0DC0FB2DF460BF2E5A
:1009700009C034FE0AC0292F2660B22E06C028E026
:1009800030E005C020E130E002C020E132E0F801B3
:10099000B7FE07C060817181828193810C5F1F4F18
:1009A00006C06081718180E090E00E5F1F4FA3015F
:1009B0000E940007882E8618FB2DFF773F2E36FEFB
:1009C0000DC0232D2E7FA22E891458F434FE0BC0A7
:1009D00032FC09C0832D8E7EA82E05C0B82CA32C16
:1009E00003C0B82C01C0B92CA4FE0FC0FE01E80D55
:1009F000F11D8081803321F49A2D997EA92E09C0A2
:100A0000A2FE06C0B394B39404C08A2D867809F080
:100A1000B394A3FC11C0A0FE06C0B21488F4280C45
:100A2000922C9B180EC0B21460F4B60180E290E0E4
:100A30000E94C406B394F7CFB21418F42B1802C066
:100A4000982C212CA4FE10C0B60180E390E00E94F7
:100A5000C406A2FE17C0A1FC03C088E790E002C054
:100A600088E590E0B6010CC08A2D867859F0A1FE89
:100A700002C08BE201C080E2A7FC8DE2B60190E0EB
:100A80000E94C406891438F4B60180E390E00E9405
:100A9000C4069A94F7CF8A94F301E80DF11D808182
:100AA000B60190E00E94C4068110F5CF222009F41F
:100AB00042CEB60180E290E00E94C4062A94F6CFAE
:100AC000F6018681978102C08FEF9FEF2B96E2E1BE
:100AD0000C947A070F931F93CF93DF93869F800127
:100AE000879F100D969F100D1124C8010E94860546
:100AF000EC01009729F0A80160E070E00E94B206C6
:100B0000CE01DF91CF911F910F9108950F931F9305
:100B1000CF93DF938230910510F482E090E0E09172
:100B2000F401F091F50120E030E0A0E0B0E0309772
:100B300019F1408151810281138148175907C8F08A
:100B40008417950769F4109731F012960C93129759
:100B500013961C9327C00093F4011093F50122C053
:100B60002115310519F04217530718F49A01BD01F8
:100B7000EF01DF01F801DBCF21153105F9F0281B6A
:100B8000390B2430310580F48A819B816115710510
:100B900021F0FB019383828304C09093F50180933D
:100BA000F401FE01329644C0FE01E20FF31F81936F
:100BB000919322503109398328833AC02091F20160
:100BC0003091F301232B41F4209102013091030174
:100BD0003093F3012093F201209100013091010143
:100BE0002115310541F42DB73EB7409104015091D4
:100BF0000501241B350BE091F201F091F301E2179E
:100C0000F307A0F42E1B3F0B2817390778F0AC012F
:100C10004E5F5F4F2417350748F04E0F5F1F50930C
:100C2000F3014093F2018193919302C0E0E0F0E080
:100C3000CF01DF91CF911F910F910895CF93DF9353
:100C4000009709F481C0FC01329713821282A091AF
:100C5000F401B091F501109781F420813181820F68
:100C6000931F2091F2013091F3012817390751F5B4
:100C7000F093F301E093F20167C0ED0120E030E072
:100C8000CE17DF0740F44A815B819E014115510573
:100C9000F1F0EA01F5CFD383C28340815181840F03
:100CA000951FC817D90759F488819981840F951F1A
:100CB0000296918380838A819B819383828321150D
:100CC000310529F4F093F501E093F4013DC0E90109
:100CD000FB83EA8349915991C40FD51FEC17FD0797
:100CE00061F480819181840F951F0296E9019983B7
:100CF0008883828193819B838A83E0E0F0E012966F
:100D00008D919C911397009719F0FD01DC01F7CFAD
:100D10008D919C9111979D012E5F3F4F820F931FE4
:100D20002091F2013091F3012817390769F43097C7
:100D300029F41092F5011092F40102C0138212827C
:100D4000B093F301A093F201DF91CF910895FC01DC
:100D50000590615070400110D8F7809590958E0FE6
:100D60009F1F0895DC0101C06D9341505040E0F792
:100D70000895FC016150704001900110D8F78095F2
:100D800090958E0F9F1F08950F931F93CF93DF931E
:100D9000FB01238121FD03C08FEF9FEF2CC022FFB9
:100DA00016C046815781248135814217530744F488
:100DB000A081B1819D012F5F3F4F318320838C93B0
:100DC000268137812F5F3F4F3783268314C08B01E5
:100DD000EC01FB010084F185E02D0995892BE1F6FA
:100DE000D80116968D919C911797019617969C9312
:100DF0008E931697CE01DF91CF911F910F91089599
:100E0000FA01AA27283051F1203181F1E8946F933B
:100E10006E7F6E5F7F4F8F4F9F4FAF4FB1E03ED0E1
:100E2000B4E03CD0670F781F891F9A1FA11D680F7F
:100E3000791F8A1F911DA11D6A0F711D811D911DB2
:100E4000A11D20D009F468943F912AE0269F112427
:100E50003019305D3193DEF6CF010895462F47708B
:100E6000405D4193B3E00FD0C9F7F6CF462F4F70E6
:100E7000405D4A3318F0495D31FD4052419302D044
:100E8000A9F7EACFB4E0A6959795879577956795EA
:100E9000BA95C9F700976105710508959B01AC01EA
:100EA0000A2E06945795479537952795BA95C9F711
:100EB000620F731F841F951FA01D08952F923F92EC
:100EC0004F925F926F927F928F929F92AF92BF925A
:100ED000CF92DF92EF92FF920F931F93CF93DF9306
:100EE000CDB7DEB7CA1BDB0B0FB6F894DEBF0FBE63
:100EF000CDBF09942A88398848885F846E847D84B0
:100F00008C849B84AA84B984C884DF80EE80FD80B1
:100F10000C811B81AA81B981CE0FD11D0FB6F89427
:0E0F2000DEBF0FBECDBFED010895F894FFCFE8
:100F2E000000F60120000014636E66313A25640D50
:100F3E000A00636E66323A25640D0A00636E6633EC
:100F4E003A25640D0A0A004D435032353135206979
:100F5E0073204E4F5420696E206E6F726D616C203F
:100F6E006D6F646520616674657220726573657459
:100F7E002100646174613A2025630D0A6C656E6709
:100F8E0074683A2025640D0A69643A2025640D0AB6
:100F9E000A0053656E64696E673A0D0A6461746186
:100FAE003A2025640D0A6C656E6774683A202564D4
:100FBE000D0A69643A2025640D0A0A004D43503229
:100FCE00353135206973204E4F5420696E20636F82
:100FDE006E66696775726174696F6E206D6F646598
:100FEE0020616674657220726573657421004E6FA0
:100FFE007420612076616C696420656E7472790A62
:0C100E000D2074727920616761696E002A
:00000001FF
