S015000047335F45535F50726F6A6563742E7372656368
S11300000C9438000C9455000C9455000C94550035
S11300100C9455000C9455000C9455000C94550008
S11300200C9455000C9455000C9455000C945500F8
S11300300C9455000C9455000C9455000C945500E8
S11300400C9455000C9455000C9455000C945500D8
S11300500C9455000C9455000C9455000C945500C8
S11300600C9455000C9455000C9455000C945500B8
S113007011241FBECFEFD4E0DEBFCDBF11E0A0E05E
S1130080B1E0E8E1F0E102C005900D92AC32B107B5
S1130090D9F721E0ACE2B1E001C01D92A633B2076A
S11300A0E1F70E941E010C940A080C9400008C9A3B
S11300B0EBE8F0E0808188648083EAE8F0E0808106
S11300C08960808381E0809387000895882341F0CC
S11300D0813041F0823041F0833039F493E805C037
S11300E090E803C091E801C092E8E0910601F09124
S11300F00701908381E48A95F1F700C0E09106013D
S1130100F091070180810895DF92EF92FF920F939F
S11301101F93CF93DF93D82E7B011616170674F422
S1130120C0E0D0E000E010E08D2D0E946600080FD2
S1130130111D2196EC16FD06B9F702C000E010E08F
S1130140C801B7010E947503CB01DF91CF911F91C4
S11301500F91FF90EF90DF900895CF92DF92EF928E
S1130160FF92CF93DF93EB01282F30E062177307E0
S113017024F1682F70E080E090E00E947A026B0125
S11301807C01BE01DD0F880B990B0E947C029B0150
S1130190AC01C701B6010E94D20120E030E048EC76
S11301A052E40E94080320E030E048EC52E40E944C
S11301B065010E944402CB0133C0682F70E080E0E7
S11301C090E00E947A029B01AC0160E070E08FE74E
S11301D093E40E9465016B017C01BE01DD0F880B75
S11301E0990B0E947C029B01AC0160E070E08FE7F8
S11301F093E40E9465019B01AC01C701B6010E9412
S1130200D20120E030E048EC52EC0E94080320E0E8
S113021030E048EC52E40E9466010E944402CB01A3
S1130220DF91CF91FF90EF90DF90CF90089585B745
S1130230806885BF80B7806280BF08958FE190E0B9
S11302400E94560161E671E08DE591E00E949D03F4
S11302500E9457000E9417016AE070E081E00E944A
S113026084006C010F2EF8E0EF2EF1E0FF2EF02D4C
S11302700FE111E080E00E946600C82FB6010E94E1
S1130280AD009F938F93FF92EF920E94E8031F9219
S1130290CF931F930F930E94E8038DB79EB70896E0
S11302A00FB6F8949EBF0FBE8DBFE4CF9CBF80B93C
S11302B088E181B98EE88CBF0895159BFECF83B980
S11302C00895179BFECF83B108955058BB27AA27E2
S11302D00E947D010C94CE020E94C00238F00E945C
S11302E0C70220F039F49F3F19F426F40C94BD02A0
S11302F00EF4E095E7FB0C94B702E92F0E94DF02AD
S113030058F3BA17620773078407950720F079F446
S1130310A6F50C9401030EF4E0950B2EBA2FA02D34
S11303200B01B90190010C01CA01A0011124FF279E
S1130330591B99F0593F50F4503E68F11A16F04099
S1130340A22F232F342F4427585FF3CF4695379598
S11303502795A795F0405395C9F77EF41F16BA0B5D
S1130360620B730B840BBAF09150A1F0FF0FBB1F0B
S1130370661F771F881FC2F70EC0BA0F621F731F54
S1130380841F48F4879577956795B795F7959E3FB1
S113039008F0B0CF9395880F08F09927EE0F979542
S11303A0879508950E94E6010C94CE020E94C7022C
S11303B058F00E94C00240F029F45F3F29F00C94E9
S11303C0B70251110C9402030C94BD020E94DF0287
S11303D068F39923B1F3552391F3951B550BBB2770
S11303E0AA2762177307840738F09F5F5F4F220FB5
S11303F0331F441FAA1FA9F335D00E2E3AF0E0E8AC
S113040032D091505040E695001CCAF72BD0FE2FF5
S113041029D0660F771F881FBB1F26173707480789
S1130420AB07B0E809F0BB0B802DBF01FF27935841
S11304305F4F3AF09E3F510578F00C94B7020C944C
S113044002035F3FE4F3983ED4F38695779567956E
S1130450B795F7959F5FC9F7880F911D9695879576
S113046097F90895E1E0660F771F881FBB1F621795
S113047073078407BA0720F0621B730B840BBA0B53
S1130480EE1F88F7E09508950E944B026894B1111D
S11304900C94020308950E94E70288F09F5798F095
S11304A0B92F9927B751B0F0E1F0660F771F881F75
S11304B0991F1AF0BA95C9F714C0B13091F00E948F
S11304C00103B1E008950C940103672F782F882766
S11304D0B85F39F0B93FCCF3869577956795B395B6
S11304E0D9F73EF490958095709561957F4F8F4F25
S11304F09F4F0895E89409C097FB3EF4909580952A
S1130500709561957F4F8F4F9F4F9923A9F0F92FD5
S113051096E9BB279395F695879577956795B79553
S1130520F111F8CFFAF4BB0F11F460FF1BC06F5F39
S11305307F4F8F4F9F4F16C0882311F096E911C04B
S1130540772321F09EE8872F762F05C0662371F06C
S113055096E8862F70E060E02AF09A95660F771F80
S1130560881FDAF7880F9695879597F9089597F974
S11305709F6780E870E060E008959FEF80EC089545
S113058000240A941616170618060906089500246E
S11305900A9412161306140605060895092E0394E8
S11305A0000C11F4882352F0BB0F40F4BF2B11F45C
S11305B060FF04C06F5F7F4F8F4F9F4F089557FDBB
S11305C09058440F551F59F05F3F71F04795880FBD
S11305D097FB991F61F09F3F79F087950895121654
S11305E013061406551FF2CF4695F1DF08C0161600
S11305F017061806991FF1CF8695710561050894B1
S11306000895E894BB2766277727CB0197F90895C7
S11306100E941B030C94CE020E94C00238F00E9478
S1130620C70220F0952311F00C94B7020C94BD027C
S113063011240C9402030E94DF0270F3959FC1F30E
S1130640950F50E0551F629FF001729FBB27F00D7C
S1130650B11D639FAA27F00DB11DAA1F649F6627D1
S1130660B00DA11D661F829F2227B00DA11D621F20
S1130670739FB00DA11D621F839FA00D611D221FDA
S1130680749F3327A00D611D231F849F600D211DBE
S1130690822F762F6A2F11249F5750409AF0F1F041
S11306A088234AF0EE0FFF1FBB1F661F771F881FAA
S11306B091505040A9F79E3F510580F00C94B70229
S11306C00C9402035F3FE4F3983ED4F38695779548
S11306D06795B795F795E7959F5FC1F7FE2B880F50
S11306E0911D9695879597F9089597FB072E16F413
S11306F0009407D077FD09D00E94890307FC05D038
S11307003EF4909581959F4F0895709561957F4F24
S11307100895AA1BBB1B51E107C0AA1FBB1FA61744
S1130720B70710F0A61BB70B881F991F5A95A9F796
S113073080959095BC01CD0108950F931F93CF939D
S1130740DF93009731F46115710519F480E090E0AE
S11307503AC08B01EC016EE070E081E090E00E9411
S1130760DF05FC01892B91F380E8838301151105D2
S113077071F01387028781E8838380912C01909123
S11307802D01892B21F4F0932D01E0932C01209766
S1130790C9F0D187C08783818260838380912E01D1
S11307A090912F01892B71F4F0932F01E0932E0186
S11307B08091300190913101892B21F4F093310122
S11307C0E0933001CF01DF91CF911F910F910895F4
S11307D0A0E0B0E0EEEEF3E00C94E307AE014B5F73
S11307E05F4FFA0161917191AF0180912E01909157
S11307F02F010E94FE03E2E00C94FF07ABE0B0E09F
S1130800E4E0F4E00C94D3076C017B018A01FC0161
S113081017821682838181FFCCC1CE0101963C01EF
S1130820F6019381F70193FD859193FF81917F01F7
S1130830882309F4BAC1853239F493FD859193FF75
S113084081917F01853229F4B60190E00E94390735
S1130850E7CF912C212C312CFFE1F315D8F08B320A
S113086079F038F4803279F08332A1F4232D2061B9
S11308701DC08D3261F0803369F4232D216016C0D0
S1130880832D8260382EE32DE4603E2E2AC0F32DA2
S1130890F8601DC037FC2DC020ED280F2A3040F031
S11308A08E32B9F436FC81C1232D2064322E19C056
S11308B036FE06C08AE0989E200D1124922E11C0A7
S11308C0EAE02E9E200D1124222EF32DF0623F2EFD
S11308D008C08C3621F4832D8068382E02C08836F7
S11308E041F4F70193FD859193FF81917F0181117B
S11308F0B3CF982F9F7D9554933028F40C5F1F4FEE
S11309009FE399830DC0833631F0833771F08335CB
S113091009F059C021C0F801808189830E5F1F4FFF
S113092088248394912C530113C02801F2E04F0EC4
S1130930511CF801A080B18036FE03C0692D70E01F
S113094002C06FEF7FEFC5010E942E074C018201A8
S1130950F32DFF773F2E16C0280122E0420E511CD2
S1130960F801A080B18036FE03C0692D70E002C09A
S11309706FEF7FEFC5010E941C074C01F32DF06857
S11309803F2E820133FC1BC0822D90E0881699060D
S1130990B0F4B60180E290E00E9439072A94F4CFC3
S11309A0F50137FC859137FE81915F01B60190E036
S11309B00E94390721102A9421E0821A9108811497
S11309C0910471F7E8C0843611F0893641F5F801D5
S11309D037FE07C060817181828193810C5F1F4F54
S11309E008C060817181072E000C880B990B0E5F83
S11309F01F4FF32DFF763F2E97FF09C090958095EA
S1130A00709561957F4F8F4F9F4FF0683F2E2AE07E
S1130A1030E0A3010E947507882E861845C08537EB
S1130A2031F4232D2F7EB22E2AE030E025C0932D01
S1130A30997FB92E8F36C1F018F4883579F0B5C096
S1130A40803719F0883721F0B0C0E92FE061BE2E5D
S1130A50B4FE0DC0FB2DF460BF2E09C034FE0AC0E5
S1130A60292F2660B22E06C028E030E005C020E120
S1130A7030E002C020E132E0F801B7FE07C0608137
S1130A807181828193810C5F1F4F06C060817181E7
S1130A9080E090E00E5F1F4FA3010E947507882E2F
S1130AA08618FB2DFF773F2E36FE0DC0232D2E7F9B
S1130AB0A22E891458F434FE0BC032FC09C0832DD5
S1130AC08E7EA82E05C0B82CA32C03C0B82C01C060
S1130AD0B92CA4FE0FC0FE01E80DF11D8081803306
S1130AE021F49A2D997EA92E09C0A2FE06C0B394C2
S1130AF0B39404C08A2D867809F0B394A3FC11C082
S1130B00A0FE06C0B21488F4280C922C9B180EC0C8
S1130B10B21460F4B60180E290E00E943907B39405
S1130B20F7CFB21418F42B1802C0982C212CA4FE71
S1130B3010C0B60180E390E00E943907A2FE17C0FE
S1130B40A1FC03C088E790E002C088E590E0B6010C
S1130B500CC08A2D867859F0A1FE02C08BE201C038
S1130B6080E2A7FC8DE2B60190E00E943907891467
S1130B7038F4B60180E390E00E9439079A94F7CFE5
S1130B808A94F301E80DF11D8081B60190E00E9482
S1130B9039078110F5CF222009F442CEB60180E254
S1130BA090E00E9439072A94F6CFF6018681978156
S1130BB002C08FEF9FEF2B96E2E10C94EF070F93A7
S1130BC01F93CF93DF93869F8001879F100D969F7D
S1130BD0100D1124C8010E94FB05EC01009729F0B7
S1130BE0A80160E070E00E942707CE01DF91CF9159
S1130BF01F910F9108950F931F93CF93DF9382302A
S1130C00910510F482E090E0E0913401F091350117
S1130C1020E030E0A0E0B0E0309719F1408151814C
S1130C200281138148175907C8F08417950769F49E
S1130C30109731F012960C93129713961C9327C0B9
S1130C40009334011093350122C02115310519F0A8
S1130C504217530718F49A01BD01EF01DF01F801AF
S1130C60DBCF21153105F9F0281B390B2430310570
S1130C7080F48A819B816115710521F0FB019383C6
S1130C80828304C09093350180933401FE0132962F
S1130C9044C0FE01E20FF31F819391932250310966
S1130CA0398328833AC02091320130913301232BB8
S1130CB041F42091020130910301309333012093D8
S1130CC0320120910001309101012115310541F4D7
S1130CD02DB73EB74091040150910501241B350BFB
S1130CE0E0913201F0913301E217F307A0F42E1BD7
S1130CF03F0B2817390778F0AC014E5F5F4F24177C
S1130D00350748F04E0F5F1F509333014093320173
S1130D108193919302C0E0E0F0E0CF01DF91CF91A5
S1130D201F910F910895CF93DF93009709F481C029
S1130D30FC01329713821282A0913401B0913501E3
S1130D40109781F420813181820F931F2091320109
S1130D50309133012817390751F5F0933301E093AB
S1130D60320167C0ED0120E030E0CE17DF0740F428
S1130D704A815B819E0141155105F1F0EA01F5CFED
S1130D80D383C28340815181840F951FC817D9072B
S1130D9059F488819981840F951F029691838083E9
S1130DA08A819B81938382832115310529F4F093F1
S1130DB03501E09334013DC0E901FB83EA834991A5
S1130DC05991C40FD51FEC17FD0761F480819181FF
S1130DD0840F951F0296E901998388838281938108
S1130DE09B838A83E0E0F0E012968D919C911397A7
S1130DF0009719F0FD01DC01F7CF8D919C911197BB
S1130E009D012E5F3F4F820F931F2091320130913D
S1130E1033012817390769F4309729F41092350102
S1130E201092340102C013821282B0933301A09352
S1130E303201DF91CF910895FC010590615070401B
S1130E400110D8F7809590958E0F9F1F0895DC01AF
S1130E5001C06D9341505040E0F70895FC0161508A
S1130E60704001900110D8F7809590958E0F9F1FC8
S1130E7008950F931F93CF93DF93FB01238121FDEB
S1130E8003C08FEF9FEF2CC022FF16C0468157810D
S1130E90248135814217530744F4A081B1819D0117
S1130EA02F5F3F4F318320838C93268137812F5FBF
S1130EB03F4F3783268314C08B01EC01FB01008470
S1130EC0F185E02D0995892BE1F6D80116968D91CF
S1130ED09C911797019617969C938E931697CE0123
S1130EE0DF91CF911F910F910895FA01AA2728301D
S1130EF051F1203181F1E8946F936E7F6E5F7F4FE3
S1130F008F4F9F4FAF4FB1E03ED0B4E03CD0670F5E
S1130F10781F891F9A1FA11D680F791F8A1F911DB1
S1130F20A11D6A0F711D811D911DA11D20D009F401
S1130F3068943F912AE0269F11243019305D319343
S1130F40DEF6CF010895462F4770405D4193B3E02C
S1130F500FD0C9F7F6CF462F4F70405D4A3318F0D3
S1130F60495D31FD4052419302D0A9F7EACFB4E084
S1130F70A6959795879577956795BA95C9F700973C
S1130F806105710508959B01AC010A2E06945795DD
S1130F90479537952795BA95C9F7620F731F841F34
S1130FA0951FA01D08952F923F924F925F926F92CA
S1130FB07F928F929F92AF92BF92CF92DF92EF92E5
S1130FC0FF920F931F93CF93DF93CDB7DEB7CA1B66
S1130FD0DB0B0FB6F894DEBF0FBECDBF09942A8891
S1130FE0398848885F846E847D848C849B84AA8439
S1130FF0B984C884DF80EE80FD800C811B81AA81C6
S1131000B981CE0FD11D0FB6F894DEBF0FBECDBF90
S10B1010ED010895F894FFCFEF
S113101800003601200000146E6F726D616C697AED
S113102865642076616C75653A2025640D0A00763E
S10F1038616C75653A2025640D0A0A00FD
S9030000FC
