:100000000C94B4010C94C6030C94D1010C94D1014E
:100010000C94D1010C94D1010C94D1010C94D10118
:100020000C94D1010C94D1010C94D1010C94D10108
:100030000C94D1010C94D1010C94D1010C94D101F8
:100040000C94D1010C94D1010C94D1010C94D101E8
:100050000C94D1010C94D1010C94D1010C94D101D8
:100060000C94D1010C94D1010C94D1010C94D101C8
:10007000000000000000000000065F5F06000000B6
:100080000007070007070000147F7F147F7F14001C
:10009000242E6B6B3A120000466630180C66620024
:1000A000307A4F5D377A48000407030000000000F3
:1000B000001C3E63410000000041633E1C00000044
:1000C000082A3E1C1C3E2A0808083E3E080800007C
:1000D00000A0E06000000000080808080808000010
:1000E00000006060000000006030180C0603010092
:1000F0003E7F594D7F3E000042427F7F40400000DE
:10010000627359496F660000226349497F360000D7
:10011000181C16137F7F1000276745457D390000A6
:100120003C7E4B4979300000036371190F070000D2
:10013000367F49497F360000064F49693F1E00005F
:1001400000006C6C0000000000A0EC6C00000000DF
:10015000081C366341000000141414141414000029
:10016000004163361C080000020351590F060000CD
:100170003E7F415D5D1F1E007C7E13137E7C000070
:10018000417F7F49497F36001C3E63414163220025
:10019000417F7F41637F1C00417F7F495D41630058
:1001A000417F7F491D0103001C3E63415173720072
:1001B0007F7F08087F7F000000417F7F41000000B3
:1001C000307040417F3F0100417F7F081C77630012
:1001D000417F7F41406070007F7F060C067F7F007B
:1001E0007F7F060C187F7F001C3E6341633E1C002E
:1001F000417F7F49090F06001E3F21717F5E00008D
:10020000417F7F19396F460026674D597B320000C8
:1002100003417F7F410300007F7F40407F7F0000DC
:100220001F3F60603F1F00007F7F3018307F7F00DE
:1002300063771C081C776300074F78784F0700002E
:100240006773594D47637100007F7F414100000093
:100250000103060C183060000041417F7F00000060
:10026000080C0603060C0800808080808080808057
:100270000000030704000000207454543C78400040
:10028000413F7F44447C3800387C44446C28000063
:10029000307848493F7F4000387C54545C18000057
:1002A000487E7F490302000098BCA4A4F87C0400A7
:1002B000417F7F08047C780000447D7D4000000081
:1002C00040C484FD7D000000417F7F10386C4400F5
:1002D00000417F7F400000007C7C0C180C7C780083
:1002E0007C7C04047C780000387C44447C3800002A
:1002F00084FCF8A4243C1800183C24A4F8FC8400D6
:10030000447C78441C180000485C54547424000059
:1003100000043E7F442400003C7C40403C7C400084
:100320001C3C60603C1C00003C7C6030607C3C00FD
:10033000446C3810386C44009CBCA0A0FC7C0000CD
:100340004C64745C4C64000008083E774141000036
:1003500000000077770000004141773E0808000068
:10036000020301030203010011241FBECFEFD4E0FA
:10037000DEBFCDBF13E0A0E0B1E0EAE2F2E202C0EE
:1003800005900D92AA36B107D9F723E0AAE6B3E0AB
:1003900001C01D92AC37B207E1F70E94F8090C9436
:1003A00013110C9400008C9AEBE8F0E080818864D3
:1003B0008083EAE8F0E080818960808381E0809337
:1003C00087000895882341F0813041F0823041F068
:1003D000833039F493E805C090E803C091E801C088
:1003E00092E8E0910601F0910701908381E48A95FB
:1003F000F1F700C0E0910601F091070180810895B6
:100400000E94DC0463E08BE20E94C40461E088E2A5
:100410000E94C40465EB89E20E94C40463E48AE29A
:100420000E94C4048AE20E94B60489E20E94B604D3
:1004300088E20E94B60460E08FE00E94C4048EE06F
:100440000E94B604807E21F08CE091E00E94B50C01
:10045000F89485B7826085BF8BB780648BBF789432
:100460000895BF92CF92DF92EF92FF920F931F9366
:10047000CF93DF93CDB7DEB72C970FB6F894DEBFDE
:100480000FBECDBF0E940E0580FF33C081E60E94E3
:10049000B604C82E82E60E94B604D12CCC0CDD1C1A
:1004A000CC0CDD1CCC0CDD1C829586958770C82A8F
:1004B00085E60E94B604E82EF12C1E141F04A4F455
:1004C00000E010E0B12C86E68B0D0E94B604E5E05A
:1004D000F0E0EC0FFD1FE00FF11F8083B3940B2DB4
:1004E00010E00E151F057CF340E061E08CE20E94F5
:1004F00016050E940E0581FF33C081E70E94B604F5
:10050000C82E82E70E94B604D12CCC0CDD1CCC0C8A
:10051000DD1CCC0CDD1C829586958770C82A85E78A
:100520000E94B604E82EF12C1E141F04A4F400E06F
:1005300010E0B12C86E78B0D0E94B604E5E0F0E0F8
:10054000EC0FFD1FE00FF11F8083B3940B2D10E023
:100550000E151F057CF340E062E08CE20E94160558
:1005600087E391E09F938F930E949F0CDF92CF923D
:1005700087E491E09F938F930E949F0CFF92EF92EC
:1005800088E591E09F938F930E949F0C0FB6F8949B
:10059000DEBF0FBECDBF1E141F04FCF48E010B5F27
:1005A0001F4FCE018E0D9F1DFC0135967F010F2E32
:1005B000F0E8CF2EF1E0DF2EF02DF80181918F01D0
:1005C0001F928F93DF92CF920E949F0C0F900F90FB
:1005D0000F900F90E016F10681F784E891E09F9369
:1005E0008F930E949F0C0F900F902C960FB6F8944B
:1005F000DEBF0FBECDBFDF91CF911F910F91FF9056
:10060000EF90DF90CF90BF900895CF92DF92EF925E
:10061000FF920F931F93CF93DF93CDB7DEB72C9745
:100620000FB6F894DEBF0FBECDBFE982FA820B830E
:100630001C832D833E834F83588769877A878B87F6
:100640009C87E980FA80CB80DC80B6017595679540
:10065000759567957595679581E30E94C4046C2D27
:100660006295660F607E82E30E94C4046E2D85E36E
:100670000E94C4041E141F040CF05AC080E090E0D5
:1006800010E0E5E0F0E0EC0FFD1FE80FF91F6081DE
:1006900086E3810F0E94C4041F5F812F90E08E15B6
:1006A0009F057CF319C0F60181916F011F928F9312
:1006B0001F930F930E949F0C0F900F900F900F901D
:1006C000CE14DF0481F784E891E09F938F930E941A
:1006D0009F0C0F900F904BC080E00E94EB0487E3CB
:1006E00091E09F938F930E949F0CDF92CF9287E4BB
:1006F00091E09F938F930E949F0CFF92EF9288E569
:1007000091E09F938F930E949F0C6E01F5E0CF0EB6
:10071000D11CCE018E0D9F1D9C012B5F3F4F790197
:100720000FB6F894DEBF0FBECDBF00E811E0BBCF1F
:1007300080E00E94EB0487E391E09F938F930E94F7
:100740009F0CDF92CF9287E491E09F938F930E945A
:100750009F0CFF92EF9288E591E09F938F930E9408
:100760009F0C0FB6F894DEBF0FBECDBFACCF2C965A
:100770000FB6F894DEBF0FBECDBFDF91CF911F91B2
:100780000F91FF90EF90DF90CF9008951F920F92FE
:100790000FB60F9211242F933F934F935F936F9354
:1007A0007F938F939F93AF93BF93EF93FF930E9499
:1007B0003102FF91EF91BF91AF919F918F917F9106
:1007C0006F915F914F913F912F910F900FBE0F90BE
:1007D0001F901895DF92EF92FF920F931F93CF9384
:1007E000DF93D82E7B012FEF8FE791E021508040DF
:1007F0009040E1F700C000C01616170674F4C0E080
:10080000D0E000E010E08D2D0E94E201080F111DE4
:100810002196EC16FD06B9F702C000E010E0C80111
:10082000B7010E942C0CCB01DF91CF911F910F914A
:10083000FF90EF90DF900895CF92DF92EF92FF92BA
:10084000CF93DF93EB01282F30E06217730724F179
:10085000682F70E080E090E00E94310B6B017C011A
:10086000BE01DD0F880B990B0E94330B9B01AC017D
:10087000C701B6010E94890A20E030E048EC52E44A
:100880000E94BF0B20E030E048EC52E40E941C0ABA
:100890000E94FB0ACB0133C0682F70E080E090E03B
:1008A0000E94310B9B01AC0160E070E08FE793E4A4
:1008B0000E941C0A6B017C01BE01DD0F880B990BA5
:1008C0000E94330B9B01AC0160E070E08FE793E482
:1008D0000E941C0A9B01AC01C701B6010E94890A53
:1008E00020E030E048EC52EC0E94BF0B20E030E00A
:1008F00048EC52E40E941D0A0E94FB0ACB01DF91E2
:10090000CF91FF90EF90DF90CF90089581B381BB9E
:1009100080B3817090E00895EF92FF920F931F9340
:10092000CF93DF93CDB7DEB72C970FB6F894DEBF29
:100930000FBECDBF362F522F602F91E0092F95E0CB
:10094000E92EF12C10E0282F7A858B859C850E945A
:1009500005032C960FB6F894DEBF0FBECDBFDF9116
:10096000CF911F910F91FF90EF900895CF93C82FD3
:10097000C49883E00E94E8098C2F0E94E8090E9435
:10098000EC09C49ACF910895CF93DF93D82FC62F47
:10099000C49882E00E94E8098D2F0E94E8098C2FFC
:1009A0000E94E809C49ADF91CF910895C49880EC21
:1009B0000E94E809C49A08950E94DD090E94D604A5
:1009C0008EE00E94B604807E803821F088E891E0B5
:1009D0000E94B50C0895C498813051F028F08230FF
:1009E00059F0893069F010C081E80E94E80914C00C
:1009F00082E80E94E80910C084E80E94E8090CC05F
:100A000087E80E94E80908C08AEB91E09F938F93E2
:100A10000E949F0C0F900F90C49A0895C49880EA8A
:100A20000E94E8090E94EC09C49A08951F93CF938D
:100A3000DF93182FD62FC42FC49885E00E94E809B1
:100A4000812F0E94E8098D2F0E94E8098C2F0E94B7
:100A5000E809C49ADF91CF911F9108950E94B808C8
:100A600060E080E00E94BF098EE30E948A096FE087
:100A700080E00E94BF0988ED91E00E94CE096FE0FE
:100A800082E00E94BF0983EE91E00E94CE096FE0F0
:100A900084E00E94BF098EEE91E00E94CE096FE0D3
:100AA00086E00E94BF098BEF91E00E94CE09109270
:100AB00071031092700308958230910539F481E832
:100AC0000E94840980E10E94840908958430910580
:100AD00039F481E80E94840980E50E948409089520
:100AE000069731F481E80E94840980EA0E94840913
:100AF0000895CF93DF93EC018EE20E94840989E28E
:100B00000E94840980E00E94840980E00E94840998
:100B100087E00E94840987E00E94840981E00E94A6
:100B2000840960E087E00E94BF09CE010E94CE09DF
:100B30008FE20E9484092FEF8FEF9EE021508040CA
:100B40009040E1F700C000008EE20E9484092FEF80
:100B50008FE794E0215080409040E1F700C0000012
:100B60000E94B808DF91CF91089580E00E94E201D1
:100B7000D82F81E00E94E201C82F0E9486040091D4
:100B80006C0310916D0320916E0330916F036C2FF5
:100B900070E0AC018D2F90E00E948C042FEF8FE766
:100BA00091E0215080409040E1F700C000C0DDCFCF
:100BB000CF92DF92EF92FF920F931F93CF93DF9329
:100BC000CDB7DEB72A970FB6F894DEBF0FBECDBF04
:100BD0008C010E94B8081F930F938BE193E09F93C1
:100BE0008F930E949F0C0F900F900F900F90011504
:100BF0001105E1F481E090E090936B0380936A0328
:100C00008AE092E00E94790581E192E00E947905F4
:100C100088E192E00E94790560E082E00E94BF09CD
:100C20008FE192E00E94CE090E94B50502301105C5
:100C300009F0B0C06FE080E00E94BF0983EE91E050
:100C40000E94CE096FE082E00E94BF098EE292E02E
:100C50000E94CE096FE084E00E94BF0982E392E027
:100C60000E94CE096FE086E00E94BF0989E392E00E
:100C70000E94CE0980E00E94E201082F81E00E94DC
:100C8000E2010F2EF0E7EF2EF3E0FF2EF02D0F2EF6
:100C9000F6E0CF2ED12CF02D71C080E00E94E20151
:100CA000082F81E00E94E201182F60916C0370917F
:100CB0006D030E941C048B3591052CF160E0F70157
:100CC00080810E94C80980917003909171030297FE
:100CD0002AF0909371038093700304C0D092710343
:100CE000C092700360E0F70180810E94BF098EE32B
:100CF0000E948A09FFEF2FEF8EE0F15020408040E4
:100D0000E1F700C0000060916C0370916D03812FCA
:100D10000E941C04863A9F4F3CF560E0F7018081F9
:100D20000E94C809809170039091710302968730E8
:100D300091052CF4909371038093700304C010927A
:100D400071031092700360E0F70180810E94BF0977
:100D50008EE30E948A09FFEF2FEF8EE0F1502040D2
:100D60008040E1F700C000000E948604892B31F426
:100D700080917003909171030E945C0560916E03F5
:100D800070916F03802F0E941C04863A9F4F0CF0D5
:100D900084CFA7C00430110509F041C060E080E0B5
:100DA0000E94BF098EE392E00E94CE096FE081E0CD
:100DB0000E94BF098BE492E00E94CE0960E082E0CD
:100DC0000E94BF0987E592E00E94CE0960E083E0BF
:100DD0000E94BF0984E692E00E94CE0960E084E0B0
:100DE0000E94BF098BE692E00E94CE096FE085E089
:100DF0000E94BF0987E792E00E94CE0960E086E08A
:100E00000E94BF0981E892E00E94CE096FE087E06E
:100E10000E94BF0981E992E00E94CE0962C00630BB
:100E2000110509F05EC06FE080E00E94BF0987E90C
:100E300092E00E94CE0980916D038F9380916C03A4
:100E40008F9380916F038F9380916E038F9385EAC8
:100E500092E09F938F930E949F0C6FE082E00E942C
:100E6000BF0984EB92E00E94CE096FE083E00E940C
:100E7000BF0980916F038F9380916E038F930F2E24
:100E8000FFEBEF2EF2E0FF2EF02DFF92EF928E019E
:100E90000F5F1F4F1F930F930E94E50CC8010E9424
:100EA000CE096FE084E00E94BF0982EC92E00E94CC
:100EB000CE096FE085E00E94BF0980916D038F939A
:100EC00080916C038F93FF92EF921F930F930E9478
:100ED000E50CC8010E94CE090FB6F894DEBF0FBE24
:100EE000CDBF0E9482072A960FB6F894DEBF0FBED0
:100EF000CDBFDF91CF911F910F91FF90EF90DF90C9
:100F0000CF9008956F927F928F929F92AF92BF92EF
:100F1000CF92DF92EF92FF920F931F93CF93DF93C5
:100F200080916A0390916B03892B09F0FBC080913B
:100F300071038F93809170038F938DEC92E09F9358
:100F40008F930E949F0C0F900F900F900F90CCEEFC
:100F5000D2E00F2EF3E1CF2EF3E0DF2EF02D00E7ED
:100F600013E00F2EF4E2EF2EF3E0FF2EF02D0F2E04
:100F7000F6E08F2E912CF02D0F2EF6E4AF2EF3E03D
:100F8000BF2EF02D80E00E94E201682E81E00E94D9
:100F9000E201782E1F928F931F926F92DF93CF936F
:100FA0000E949F0C60916E0370916F03862D0E94CA
:100FB0001C040F900F900F900F900F900F90863A97
:100FC0009F4F5CF40E942E05FFEF2FEF8EE0F15053
:100FD00020408040E1F700C0000060916E037091F6
:100FE0006F03862D0E941C048B359105ECF08091D7
:100FF00071038F93809170038F93DF92CF920E9441
:101000009F0C80917003909171030E94D8059FEF0F
:10101000EFEFFEE09150E040F040E1F700C000004B
:101020000F900F900F900F9060916C0370916D0373
:10103000872D0E941C048B3591059CF160E0F8011E
:1010400080810E94C809809170039091710302977A
:101050002AF0909371038093700304C090927103FF
:1010600080927003809171038F93809170038F93AE
:10107000FF92EF920E949F0C60E0F80180810E9435
:10108000BF098EE30E948A09FFEF2FEF8EE0F15037
:1010900020408040E1F700C000000F900F900F90BB
:1010A0000F9060916C0370916D03872D0E941C045A
:1010B000863A9F4F0CF066CF60E0F80180810E9475
:1010C000C809809170039091710302968730910551
:1010D0002CF4909371038093700304C010927103F9
:1010E00010927003809171038F93809170038F939E
:1010F000BF92AF920E949F0C60E0F80180810E9435
:10110000BF098EE30E948A09FFEF2FEF8EE0F150B6
:1011100020408040E1F700C000000F900F900F903A
:101120000F9030CFDF91CF911F910F91FF90EF90F3
:10113000DF90CF90BF90AF909F908F907F906F90F7
:1011400008956AE070E080E00E94EA0390936F03E4
:1011500080936E036AE070E081E00E94EA0390935E
:101160006D0380936C030E942E050E9482070895F0
:1011700020EBE0910A01F0910B01208380E890E0E0
:10118000E0910801F091090110820197C9F72F5FE2
:10119000283B79F70895E0910A01F0910B018EEA5E
:1011A0008083E0910A01F0910B0181EA8083E09154
:1011B0000A01F0910B018AED8083E0910A01F09120
:1011C0000B0182E18083E0910A01F0910B0188EC30
:1011D0008083E0910A01F0910B0188EA8083E0911D
:1011E0000A01F0910B018FE38083E0910A01F091F5
:1011F0000B0185ED8083E0910A01F0910B0180E8FD
:101200008083E0910A01F0910B0181E88083E091F5
:101210000A01F0910B0180E38083E0910A01F091D3
:101220000B0199ED9083E0910A01F0910B0191E29D
:101230009083E0910A01F0910B0190E29083E0919C
:101240000A01F0910B0192E09083E0910A01F09184
:101250000B019BED9083E0910A01F0910B018083DB
:10126000E0910A01F0910B018DEA8083E0910A017F
:10127000F0910B011082E0910A01F0910B0184EAD8
:101280008083E0910A01F0910B0186EA8083E0916E
:101290000A01F0910B018FEA808330EB2FEFE09190
:1012A0000A01F0910B01308380E890E0E0910801A1
:1012B000F091090120830197C9F73F5F383B79F727
:1012C00080E090E021E8E0910A01F0910B01208399
:1012D000E0910A01F0910B018083EFEFFFE231977B
:1012E000F1F700C0000001968115F1E09F0759F762
:1012F0002FEF3FE787E0215030408040E1F700C00A
:1013000000000E94B8080895E0910A01F0910B01D5
:1013100080830895282F30E0F901EE0FFF1FEE0FB4
:10132000FF1FEE0FFF1FE059F040220F331F220F67
:10133000331F220F331F285830409491A091080189
:10134000B09109019C933196E217F307B1F7089524
:101350008055E0910A01F0910B0180830895982F48
:101360009F70E0910A01F0910B01908382958F703C
:101370008061E0910A01F0910B0180830895CF9381
:10138000C62F0E94A8098C2F0E94AF09CF91089503
:101390000E94BF0980E20E948A090895CF93DF93DB
:1013A000EC018881882331F021960E948A09899175
:1013B0008111FBCFDF91CF91089587B3806B87BBFD
:1013C000BE988DB181658DB96B986A98C49A08955D
:1013D0008FB9779BFECF089581E60E94E8098FB10F
:1013E000089585B7806885BF80B7806280BF089503
:1013F0008FE190E00E940D0A68E17AE084E19AE0D2
:101400000E94540C0E94D3010E94F1090E94000224
:101410000E94CB080E94A108FDCF9CBF80B988E143
:1014200081B98EE88CBF0895159BFECF83B90895CE
:10143000179BFECF83B108955058BB27AA270E945F
:10144000340A0C94850B0E94770B38F00E947E0BB7
:1014500020F039F49F3F19F426F40C94740B0EF429
:10146000E095E7FB0C946E0BE92F0E94960B58F366
:10147000BA17620773078407950720F079F4A6F579
:101480000C94B80B0EF4E0950B2EBA2FA02D0B0187
:10149000B90190010C01CA01A0011124FF27591BB9
:1014A00099F0593F50F4503E68F11A16F040A22FBF
:1014B000232F342F4427585FF3CF46953795279530
:1014C000A795F0405395C9F77EF41F16BA0B620B2F
:1014D000730B840BBAF09150A1F0FF0FBB1F661F76
:1014E000771F881FC2F70EC0BA0F621F731F841FB9
:1014F00048F4879577956795B795F7959E3F08F0DF
:10150000B0CF9395880F08F09927EE0F97958795A0
:1015100008950E949D0A0C94850B0E947E0B58F042
:101520000E94770B40F029F45F3F29F00C946E0B7A
:1015300051110C94B90B0C94740B0E94960B68F328
:101540009923B1F3552391F3951B550BBB27AA277C
:1015500062177307840738F09F5F5F4F220F331FB6
:10156000441FAA1FA9F335D00E2E3AF0E0E832D07E
:1015700091505040E695001CCAF72BD0FE2F29D081
:10158000660F771F881FBB1F261737074807AB0753
:10159000B0E809F0BB0B802DBF01FF2793585F4FC8
:1015A0003AF09E3F510578F00C946E0B0C94B90BF9
:1015B0005F3FE4F3983ED4F3869577956795B795AA
:1015C000F7959F5FC9F7880F911D9695879597F9B5
:1015D0000895E1E0660F771F881FBB1F621773072E
:1015E0008407BA0720F0621B730B840BBA0BEE1F43
:1015F00088F7E09508950E94020B6894B1110C944D
:10160000B90B08950E949E0B88F09F5798F0B92F50
:101610009927B751B0F0E1F0660F771F881F991F27
:101620001AF0BA95C9F714C0B13091F00E94B80B06
:10163000B1E008950C94B80B672F782F8827B85F16
:1016400039F0B93FCCF3869577956795B395D9F77F
:101650003EF490958095709561957F4F8F4F9F4F89
:101660000895E89409C097FB3EF490958095709595
:1016700061957F4F8F4F9F4F9923A9F0F92F96E9DE
:10168000BB279395F695879577956795B795F11153
:10169000F8CFFAF4BB0F11F460FF1BC06F5F7F4FF0
:1016A0008F4F9F4F16C0882311F096E911C0772302
:1016B00021F09EE8872F762F05C0662371F096E80B
:1016C000862F70E060E02AF09A95660F771F881FDA
:1016D000DAF7880F9695879597F9089597F99F6798
:1016E00080E870E060E008959FEF80EC08950024AA
:1016F0000A941616170618060906089500240A9477
:1017000012161306140605060895092E0394000CFC
:1017100011F4882352F0BB0F40F4BF2B11F460FF8B
:1017200004C06F5F7F4F8F4F9F4F089557FD9058B4
:10173000440F551F59F05F3F71F04795880F97FB95
:10174000991F61F09F3F79F087950895121613064F
:101750001406551FF2CF4695F1DF08C0161617067E
:101760001806991FF1CF86957105610508940895B3
:10177000E894BB2766277727CB0197F908950E9445
:10178000D20B0C94850B0E94770B38F00E947E0BD5
:1017900020F0952311F00C946E0B0C94740B112413
:1017A0000C94B90B0E94960B70F3959FC1F3950FA3
:1017B00050E0551F629FF001729FBB27F00DB11DD5
:1017C000639FAA27F00DB11DAA1F649F6627B00D65
:1017D000A11D661F829F2227B00DA11D621F739F4E
:1017E000B00DA11D621F839FA00D611D221F749F5C
:1017F0003327A00D611D231F849F600D211D822FA3
:10180000762F6A2F11249F5750409AF0F1F08823C9
:101810004AF0EE0FFF1FBB1F661F771F881F9150F6
:101820005040A9F79E3F510580F00C946E0B0C942C
:10183000B90B5F3FE4F3983ED4F3869577956795AF
:10184000B795F795E7959F5FC1F7FE2B880F911D20
:101850009695879597F9089597FB072E16F40094AF
:1018600007D077FD09D00E94400C07FC05D03EF45C
:10187000909581959F4F0895709561957F4F08953C
:10188000AA1BBB1B51E107C0AA1FBB1FA617B707A6
:1018900010F0A61BB70B881F991F5A95A9F78095C2
:1018A0009095BC01CD0108950F931F93CF93DF93C3
:1018B000009731F46115710519F480E090E03AC0A9
:1018C0008B01EC016EE070E081E090E00E94E80E98
:1018D000FC01892B91F380E883830115110571F0D8
:1018E0001387028781E88383809172039091730349
:1018F000892B21F4F0937303E09372032097C9F0CE
:10190000D187C087838182608383809174039091A3
:101910007503892B71F4F0937503E0937403809140
:10192000760390917703892B21F4F0937703E0936A
:101930007603CF01DF91CF911F910F910895A0E021
:10194000B0E0E5EAFCE00C94EC10AE014B5F5F4FB9
:10195000FA0161917191AF018091740390917503C7
:101960000E94070DE2E00C9408110F931F93CF9390
:10197000DF93E0917403F0917503238121FF1BC075
:101980008C01D0E0C0E0F80181918F016091740377
:1019900070917503DB011896ED91FC9119978823DE
:1019A00031F00995892B79F3DFEFCFEFECCF8AE0A7
:1019B0000995892B19F08FEF9FEF02C08D2F9C2F77
:1019C000DF91CF911F910F910895AEE0B0E0EBEE63
:1019D000FCE00C94EA100D891E8986E08C831A8342
:1019E00009838FEF9FE79E838D83AE01475E5F4F34
:1019F0006F89788DCE0101960E94070DEF81F885E1
:101A0000E00FF11F10822E96E4E00C940611ABE07B
:101A1000B0E0EDE0FDE00C94DC106C017B018A018C
:101A2000FC0117821682838181FFCCC1CE01019611
:101A30003C01F6019381F70193FD859193FF81911C
:101A40007F01882309F4BAC1853239F493FD859169
:101A500093FF81917F01853229F4B60190E00E94C5
:101A60004210E7CF912C212C312CFFE1F315D8F057
:101A70008B3279F038F4803279F08332A1F4232D5F
:101A800020611DC08D3261F0803369F4232D216007
:101A900016C0832D8260382EE32DE4603E2E2AC0CE
:101AA000F32DF8601DC037FC2DC020ED280F2A3023
:101AB00040F08E32B9F436FC81C1232D2064322EE1
:101AC00019C036FE06C08AE0989E200D1124922E81
:101AD00011C0EAE02E9E200D1124222EF32DF0627B
:101AE0003F2E08C08C3621F4832D8068382E02C02A
:101AF000883641F4F70193FD859193FF81917F0131
:101B00008111B3CF982F9F7D9554933028F40C5FAB
:101B10001F4F9FE399830DC0833631F0833771F0F7
:101B2000833509F059C021C0F801808189830E5F97
:101B30001F4F88248394912C530113C02801F2E095
:101B40004F0E511CF801A080B18036FE03C0692DF4
:101B500070E002C06FEF7FEFC5010E9437104C01AB
:101B60008201F32DFF773F2E16C0280122E0420E9E
:101B7000511CF801A080B18036FE03C0692D70E0D1
:101B800002C06FEF7FEFC5010E9425104C01F32DBD
:101B9000F0683F2E820133FC1BC0822D90E0881636
:101BA0009906B0F4B60180E290E00E9442102A94B7
:101BB000F4CFF50137FC859137FE81915F01B601C5
:101BC00090E00E94421021102A9421E0821A91088C
:101BD0008114910471F7E8C0843611F0893641F51B
:101BE000F80137FE07C060817181828193810C5FAB
:101BF0001F4F08C060817181072E000C880B990B64
:101C00000E5F1F4FF32DFF763F2E97FF09C0909573
:101C10008095709561957F4F8F4F9F4FF0683F2E55
:101C20002AE030E0A3010E947E10882E861845C06D
:101C3000853731F4232D2F7EB22E2AE030E025C0E7
:101C4000932D997FB92E8F36C1F018F4883579F02D
:101C5000B5C0803719F0883721F0B0C0E92FE061B6
:101C6000BE2EB4FE0DC0FB2DF460BF2E09C034FEA5
:101C70000AC0292F2660B22E06C028E030E005C039
:101C800020E130E002C020E132E0F801B7FE07C0F9
:101C900060817181828193810C5F1F4F06C06081DA
:101CA000718180E090E00E5F1F4FA3010E947E10C3
:101CB000882E8618FB2DFF773F2E36FE0DC0232D74
:101CC0002E7FA22E891458F434FE0BC032FC09C0BA
:101CD000832D8E7EA82E05C0B82CA32C03C0B82C53
:101CE00001C0B92CA4FE0FC0FE01E80DF11D8081DA
:101CF000803321F49A2D997EA92E09C0A2FE06C038
:101D0000B394B39404C08A2D867809F0B394A3FCED
:101D100011C0A0FE06C0B21488F4280C922C9B18A7
:101D20000EC0B21460F4B60180E290E00E9442104E
:101D3000B394F7CFB21418F42B1802C0982C212CAE
:101D4000A4FE10C0B60180E390E00E944210A2FE03
:101D500017C0A1FC03C088E790E002C088E590E0CE
:101D6000B6010CC08A2D867859F0A1FE02C08BE224
:101D700001C080E2A7FC8DE2B60190E00E94421013
:101D8000891438F4B60180E390E00E9442109A94DE
:101D9000F7CF8A94F301E80DF11D8081B60190E040
:101DA0000E9442108110F5CF222009F442CEB601E4
:101DB00080E290E00E9442102A94F6CFF6018681DC
:101DC000978102C08FEF9FEF2B96E2E10C94F81001
:101DD0000F931F93CF93DF93869F8001879F100DF2
:101DE000969F100D1124C8010E94040FEC0100976A
:101DF00029F0A80160E070E00E943010CE01DF9170
:101E0000CF911F910F9108950F931F93CF93DF935D
:101E10008230910510F482E090E0E0917A03F09135
:101E20007B0320E030E0A0E0B0E0309719F1408182
:101E300051810281138148175907C8F0841795070B
:101E400069F4109731F012960C93129713961C9325
:101E500027C000937A0310937B0322C0211531051C
:101E600019F04217530718F49A01BD01EF01DF0181
:101E7000F801DBCF21153105F9F0281B390B24308F
:101E8000310580F48A819B816115710521F0FB0188
:101E90009383828304C090937B0380937A03FE0133
:101EA000329644C0FE01E20FF31F819391932250BA
:101EB0003109398328833AC020917803309179031E
:101EC000232B41F4209102013091030130937903D7
:101ED00020937803209100013091010121153105F3
:101EE00041F42DB73EB74091040150910501241BE8
:101EF000350BE0917803F0917903E217F307A0F432
:101F00002E1B3F0B2817390778F0AC014E5F5F4F4F
:101F10002417350748F04E0F5F1F50937903409305
:101F200078038193919302C0E0E0F0E0CF01DF916C
:101F3000CF911F910F910895CF93DF93009709F4EC
:101F400081C0FC01329713821282A0917A03B09172
:101F50007B03109781F420813181820F931F2091A0
:101F60007803309179032817390751F5F0937903F5
:101F7000E093780367C0ED0120E030E0CE17DF0783
:101F800040F44A815B819E0141155105F1F0EA015F
:101F9000F5CFD383C28340815181840F951FC81729
:101FA000D90759F488819981840F951F02969183EE
:101FB00080838A819B81938382832115310529F453
:101FC000F0937B03E0937A033DC0E901FB83EA834E
:101FD00049915991C40FD51FEC17FD0761F4808119
:101FE0009181840F951F0296E901998388838281EC
:101FF00093819B838A83E0E0F0E012968D919C911F
:102000001397009719F0FD01DC01F7CF8D919C919A
:1020100011979D012E5F3F4F820F931F20917803F0
:10202000309179032817390769F4309729F4109211
:102030007B0310927A0302C013821282B093790359
:10204000A0937803DF91CF910895FC010590615032
:1020500070400110D8F7809590958E0F9F1F0895BE
:10206000DC0101C06D9341505040E0F70895FC0140
:102070006150704001900110D8F7809590958E0FB7
:102080009F1F08950F931F93CF93DF93FB0123812D
:1020900021FD03C08FEF9FEF2CC022FF16C04681A9
:1020A0005781248135814217530744F4A081B181BF
:1020B0009D012F5F3F4F318320838C932681378191
:1020C0002F5F3F4F3783268314C08B01EC01FB0148
:1020D0000084F185E02D0995892BE1F6D80116964B
:1020E0008D919C911797019617969C938E931697B6
:1020F000CE01DF91CF911F910F910895FA01AA2788
:10210000283051F1203181F1E8946F936E7F6E5F3A
:102110007F4F8F4F9F4FAF4FB1E03ED0B4E03CD0E8
:10212000670F781F891F9A1FA11D680F791F8A1FCB
:10213000911DA11D6A0F711D811D911DA11D20D032
:1021400009F468943F912AE0269F11243019305DEC
:102150003193DEF6CF010895462F4770405D4193DD
:10216000B3E00FD0C9F7F6CF462F4F70405D4A332A
:1021700018F0495D31FD4052419302D0A9F7EACFF2
:10218000B4E0A6959795879577956795BA95C9F721
:1021900000976105710508959B01AC010A2E069414
:1021A0005795479537952795BA95C9F7620F731FCD
:1021B000841F951FA01D08952F923F924F925F920A
:1021C0006F927F928F929F92AF92BF92CF92DF9247
:1021D000EF92FF920F931F93CF93DF93CDB7DEB7AC
:1021E000CA1BDB0B0FB6F894DEBF0FBECDBF099440
:1021F0002A88398848885F846E847D848C849B8497
:10220000AA84B984C884DF80EE80FD800C811B81A4
:10221000AA81B981CE0FD11D0FB6F894DEBF0FBED3
:0A222000CDBFED010895F894FFCF43
:10222A0000007C0320000014001200104D435032BD
:10223A00353135206973204E4F5420696E206E6FF8
:10224A00726D616C206D6F646520616674657220C1
:10225A00726573657421006E6577206D65737361AD
:10226A0067653A200A0D006D6573736167652069B9
:10227A00643A2025640A0D006D65737361676520F1
:10228A0064617461206C656E6774683A2025640A1B
:10229A000D6D65737361676520646174613A20002E
:1022AA00256420000A0A0D004D435032353135208D
:1022BA006973204E4F5420696E20636F6E6669679A
:1022CA0075726174696F6E206D6F646520616674E2
:1022DA00657220726573657421004E6F74206120E7
:1022EA0076616C696420656E7472790A0D20747265
:1022FA007920616761696E00537461727420476165
:10230A006D65004272696768746E65737300496E21
:10231A00737472756374696F6E7300446973706C59
:10232A0061792043656E74657200524541445921B2
:10233A00005345542E2E2E00474F212121210050B3
:10234A00494E4720504F4E472054494D45004C4F67
:10235A0057004D454449554D004849474800302EDD
:10236A004A6F792072696768743A0073656C6563AD
:10237A0074206974656D00312E537461727420671C
:10238A00616D6500322E506C617900332E496620EA
:10239A0073636F72653A007072657373206A6F793E
:1023AA0000342E49662067616D65206F7665723A42
:1023BA000072657365740043656E74657220766198
:1023CA006C75657300783A2025642C20793A2025AB
:1023DA00640A0D00582063656E7465723A20002500
:1023EA006400592063656E7465723A2000637572E1
:1023FA0072656E7420726F77206265666F726520EF
:10240A007768696C653A2025640D0A006164632067
:10241A00686F72697A6F6E74616C3A2025642C2039
:10242A0061646320766572746963616C3A2025641D
:10243A000A0D0063757272656E7420726F772025BB
:10244A00640D0A0063757272656E7420726F77206C
:10245A006166746572206D6F76696E672075703A71
:10246A002025640D0A0063757272656E7420726F9E
:10247A0077206166746572206D6F76696E67206475
:0A248A006F776E3A2025640D0A00FA
:00000001FF
