:100000000C94B4010C94D1010C94D1010C94D10145
:100010000C94D1010C94D1010C94D1010C94D10118
:100020000C94D1010C94D1010C94D1010C94D10108
:100030000C94D1010C94D1010C94D1010C94D101F8
:100040000C94D1010C94D1010C94D1010C94D101E8
:100050000C94D1010C94D1010C94D1010C94D101D8
:100060000C94D1010C94D1010C94D1010C94D101C8
:10007000000000000000000000065F5F06000000B6
:100080000007070007070000147F7F147F7F14001C
:10009000242E6B6B3A120000466630180C66620024
:1000A000307A4F5D377A48000407030000000000F3
:1000B000001C3E63410000000041633E1C00000044
:1000C000082A3E1C1C3E2A0808083E3E080800007C
:1000D00000A0E06000000000080808080808000010
:1000E00000006060000000006030180C0603010092
:1000F0003E7F594D7F3E000042427F7F40400000DE
:10010000627359496F660000226349497F360000D7
:10011000181C16137F7F1000276745457D390000A6
:100120003C7E4B4979300000036371190F070000D2
:10013000367F49497F360000064F49693F1E00005F
:1001400000006C6C0000000000A0EC6C00000000DF
:10015000081C366341000000141414141414000029
:10016000004163361C080000020351590F060000CD
:100170003E7F415D5D1F1E007C7E13137E7C000070
:10018000417F7F49497F36001C3E63414163220025
:10019000417F7F41637F1C00417F7F495D41630058
:1001A000417F7F491D0103001C3E63415173720072
:1001B0007F7F08087F7F000000417F7F41000000B3
:1001C000307040417F3F0100417F7F081C77630012
:1001D000417F7F41406070007F7F060C067F7F007B
:1001E0007F7F060C187F7F001C3E6341633E1C002E
:1001F000417F7F49090F06001E3F21717F5E00008D
:10020000417F7F19396F460026674D597B320000C8
:1002100003417F7F410300007F7F40407F7F0000DC
:100220001F3F60603F1F00007F7F3018307F7F00DE
:1002300063771C081C776300074F78784F0700002E
:100240006773594D47637100007F7F414100000093
:100250000103060C183060000041417F7F00000060
:10026000080C0603060C0800808080808080808057
:100270000000030704000000207454543C78400040
:10028000413F7F44447C3800387C44446C28000063
:10029000307848493F7F4000387C54545C18000057
:1002A000487E7F490302000098BCA4A4F87C0400A7
:1002B000417F7F08047C780000447D7D4000000081
:1002C00040C484FD7D000000417F7F10386C4400F5
:1002D00000417F7F400000007C7C0C180C7C780083
:1002E0007C7C04047C780000387C44447C3800002A
:1002F00084FCF8A4243C1800183C24A4F8FC8400D6
:10030000447C78441C180000485C54547424000059
:1003100000043E7F442400003C7C40403C7C400084
:100320001C3C60603C1C00003C7C6030607C3C00FD
:10033000446C3810386C44009CBCA0A0FC7C0000CD
:100340004C64745C4C64000008083E774141000036
:1003500000000077770000004141773E0808000068
:10036000020301030203010011241FBECFEFD4E0FA
:10037000DEBFCDBF11E0A0E0B1E0ECE8F9E002C0E3
:1003800005900D92A832B107D9F721E0A8E2B1E0BB
:1003900001C01D92A233B207E1F70E9406030C943C
:1003A000C4040C94000020EBE0910801F0910901D5
:1003B000208380E890E0E0910601F091070110822F
:1003C0000197C9F72F5F283B79F70895E09108015D
:1003D000F09109018EEA8083E0910801F091090112
:1003E00081EA8083E0910801F09109018AED808320
:1003F000E0910801F091090182E18083E091080118
:10040000F091090188EC8083E0910801F0910901E5
:1004100088EA8083E0910801F09109018FE38083ED
:10042000E0910801F091090185ED8083E0910801D8
:10043000F091090180E88083E0910801F0910901C1
:1004400081E88083E0910801F091090180E58083D3
:10045000E0910801F091090189ED8083E0910801A4
:10046000F091090181E28083E0910801F091090196
:1004700080E28083E0910801F091090182E08083AD
:10048000E0910801F09109018BED8083E091080172
:10049000F091090180E38083E0910801F091090166
:1004A0008DEA8083E0910801F09109011082E091CA
:1004B0000801F091090184EA8083E0910801F0913C
:1004C000090186EA8083E0910801F09109018FEA31
:1004D000808330EB2FEFE0910801F0910901308328
:1004E00080E890E0E0910601F091070120830197F8
:1004F000C9F73F5F383B79F72FEF8FE797E021503F
:1005000080409040E1F700C000000E94D3010895B0
:10051000282F30E0F901EE0FFF1FEE0FFF1FEE0F47
:10052000FF1FE059F040220F331F220F331F220F0D
:10053000331F285830409491A0910601B0910701D3
:100540009C933196E217F307B1F708958055E09137
:100550000801F091090180830895E0910801F0916C
:1005600009018083E0910801F091090180E1808315
:100570000895CF93C62F0E94A6028C2F0E94AD0231
:10058000CF9108950E94B90280E20E9488020895E6
:10059000CF93DF93EC018881882331F021960E946C
:1005A000880289918111FBCFDF91CF91089560E09E
:1005B00080E00E94B9028EE30E9488026FE080E032
:1005C0000E94B9028AE091E00E94C8026FE082E0D6
:1005D0000E94B90287E191E00E94C8026FE084E0C6
:1005E0000E94B9028EE191E00E94C8026FE086E0AD
:1005F0000E94B90283E291E00E94C802089585B783
:10060000806885BF80B7806280BF08958FE190E0E9
:100610000E94260361E373E08DE293E00E943503BC
:100620000E94FF020E94E6010E94D7022FEF8FE78F
:1006300097E0215080409040E1F700C0000060E06A
:1006400080E00E94C20280E090E008959CBF80B9E3
:1006500088E181B98EE88CBF0895159BFECF83B9E0
:100660000895179BFECF83B108950F931F93CF93E7
:10067000DF93009731F46115710519F480E090E083
:100680003AC08B01EC016EE070E081E090E00E94E6
:100690008003FC01892B91F380E883830115110508
:1006A00071F01387028781E88383809128019091FC
:1006B0002901892B21F4F0932901E0932801209747
:1006C000C9F0D187C08783818260838380912A01AA
:1006D00090912B01892B71F4F0932B01E0932A0167
:1006E00080912C0190912D01892B21F4F0932D0103
:1006F000E0932C01CF01DF91CF911F910F910895CD
:100700000F931F93CF93DF93869F8001879F100DD8
:10071000969F100D1124C8010E949C03EC010097C4
:1007200029F0A80160E070E00E94BD04CE01DF91D5
:10073000CF911F910F9108950F931F93CF93DF9344
:100740008230910510F482E090E0E0913001F09168
:10075000310120E030E0A0E0B0E0309719F14081B5
:1007600051810281138148175907C8F084179507F2
:1007700069F4109731F012960C93129713961C930C
:1007800027C0009330011093310122C0211531059B
:1007900019F04217530718F49A01BD01EF01DF0168
:1007A000F801DBCF21153105F9F0281B390B243076
:1007B000310580F48A819B816115710521F0FB016F
:1007C0009383828304C09093310180933001FE01B2
:1007D000329644C0FE01E20FF31F819391932250A1
:1007E0003109398328833AC020912E0130912F019D
:1007F000232B41F4209102013091030130932F010A
:1008000020932E0120910001309101012115310525
:1008100041F42DB73EB74091040150910501241BCE
:10082000350BE0912E01F0912F01E217F307A0F4B0
:100830002E1B3F0B2817390778F0AC014E5F5F4F36
:100840002417350748F04E0F5F1F50932F01409338
:100850002E018193919302C0E0E0F0E0CF01DF919F
:10086000CF911F910F910895CF93DF93009709F4D3
:1008700081C0FC01329713821282A0913001B091A5
:100880003101109781F420813181820F931F2091D3
:100890002E0130912F012817390751F5F0932F01C0
:1008A000E0932E0167C0ED0120E030E0CE17DF07B6
:1008B00040F44A815B819E0141155105F1F0EA0146
:1008C000F5CFD383C28340815181840F951FC81710
:1008D000D90759F488819981840F951F02969183D5
:1008E00080838A819B81938382832115310529F43A
:1008F000F0933101E09330013DC0E901FB83EA83CD
:1009000049915991C40FD51FEC17FD0761F48081FF
:100910009181840F951F0296E901998388838281D2
:1009200093819B838A83E0E0F0E012968D919C9105
:100930001397009719F0FD01DC01F7CF8D919C9181
:1009400011979D012E5F3F4F820F931F20912E0123
:1009500030912F012817390769F4309729F4109244
:1009600031011092300102C013821282B0932F0124
:10097000A0932E01DF91CF910895DC0101C06D930A
:0C09800041505040E0F70895F894FFCF7C
:10098C000000320120000012001048656C6C6F20D2
:10099C00776F726C64210042616E616E61004E541F
:0809AC004E5500416D6E610023
:00000001FF
