:100000000C94B4010C94C6030C94D1010C94D1014E
:100010000C94D1010C94D1010C94D1010C94D10118
:100020000C94D1010C94D1010C94D1010C94D10108
:100030000C94D1010C94D1010C94D1010C94D101F8
:100040000C94D1010C94D1010C94D1010C94D101E8
:100050000C94D1010C94D1010C94D1010C94D101D8
:100060000C94D1010C94D1010C94D1010C94D101C8
:10007000000000000000000000065F5F06000000B6
:100080000007070007070000147F7F147F7F14001C
:10009000242E6B6B3A120000466630180C66620024
:1000A000307A4F5D377A48000407030000000000F3
:1000B000001C3E63410000000041633E1C00000044
:1000C000082A3E1C1C3E2A0808083E3E080800007C
:1000D00000A0E06000000000080808080808000010
:1000E00000006060000000006030180C0603010092
:1000F0003E7F594D7F3E000042427F7F40400000DE
:10010000627359496F660000226349497F360000D7
:10011000181C16137F7F1000276745457D390000A6
:100120003C7E4B4979300000036371190F070000D2
:10013000367F49497F360000064F49693F1E00005F
:1001400000006C6C0000000000A0EC6C00000000DF
:10015000081C366341000000141414141414000029
:10016000004163361C080000020351590F060000CD
:100170003E7F415D5D1F1E007C7E13137E7C000070
:10018000417F7F49497F36001C3E63414163220025
:10019000417F7F41637F1C00417F7F495D41630058
:1001A000417F7F491D0103001C3E63415173720072
:1001B0007F7F08087F7F000000417F7F41000000B3
:1001C000307040417F3F0100417F7F081C77630012
:1001D000417F7F41406070007F7F060C067F7F007B
:1001E0007F7F060C187F7F001C3E6341633E1C002E
:1001F000417F7F49090F06001E3F21717F5E00008D
:10020000417F7F19396F460026674D597B320000C8
:1002100003417F7F410300007F7F40407F7F0000DC
:100220001F3F60603F1F00007F7F3018307F7F00DE
:1002300063771C081C776300074F78784F0700002E
:100240006773594D47637100007F7F414100000093
:100250000103060C183060000041417F7F00000060
:10026000080C0603060C0800808080808080808057
:100270000000030704000000207454543C78400040
:10028000413F7F44447C3800387C44446C28000063
:10029000307848493F7F4000387C54545C18000057
:1002A000487E7F490302000098BCA4A4F87C0400A7
:1002B000417F7F08047C780000447D7D4000000081
:1002C00040C484FD7D000000417F7F10386C4400F5
:1002D00000417F7F400000007C7C0C180C7C780083
:1002E0007C7C04047C780000387C44447C3800002A
:1002F00084FCF8A4243C1800183C24A4F8FC8400D6
:10030000447C78441C180000485C54547424000059
:1003100000043E7F442400003C7C40403C7C400084
:100320001C3C60603C1C00003C7C6030607C3C00FD
:10033000446C3810386C44009CBCA0A0FC7C0000CD
:100340004C64745C4C64000008083E774141000036
:1003500000000077770000004141773E0808000068
:10036000020301030203010011241FBECFEFD4E0FA
:10037000DEBFCDBF13E0A0E0B1E0EEE1F0E202C0ED
:1003800005900D92A039B107D9F723E0A0E9B3E0B9
:1003900001C01D92A23AB207E1F70E94F2080C9444
:1003A0000D100C9400008C9AEBE8F0E080818864DA
:1003B0008083EAE8F0E080818960808381E0809337
:1003C00087000895882341F0813041F0823041F068
:1003D000833039F493E805C090E803C091E801C088
:1003E00092E8E0910601F0910701908381E48A95FB
:1003F000F1F700C0E0910601F091070180810895B6
:100400000E94DC0463E08BE20E94C40461E088E2A5
:100410000E94C40465EB89E20E94C40463E48AE29A
:100420000E94C4048AE20E94B60489E20E94B604D3
:1004300088E20E94B60460E08FE00E94C4048EE06F
:100440000E94B604807E21F08CE091E00E94AF0B08
:10045000F89485B7826085BF8BB780648BBF789432
:100460000895BF92CF92DF92EF92FF920F931F9366
:10047000CF93DF93CDB7DEB72C970FB6F894DEBFDE
:100480000FBECDBF0E940E0580FF33C081E60E94E3
:10049000B604C82E82E60E94B604D12CCC0CDD1C1A
:1004A000CC0CDD1CCC0CDD1C829586958770C82A8F
:1004B00085E60E94B604E82EF12C1E141F04A4F455
:1004C00000E010E0B12C86E68B0D0E94B604E5E05A
:1004D000F0E0EC0FFD1FE00FF11F8083B3940B2DB4
:1004E00010E00E151F057CF340E061E08CE20E94F5
:1004F00016050E940E0581FF33C081E70E94B604F5
:10050000C82E82E70E94B604D12CCC0CDD1CCC0C8A
:10051000DD1CCC0CDD1C829586958770C82A85E78A
:100520000E94B604E82EF12C1E141F04A4F400E06F
:1005300010E0B12C86E78B0D0E94B604E5E0F0E0F8
:10054000EC0FFD1FE00FF11F8083B3940B2D10E023
:100550000E151F057CF340E062E08CE20E94160558
:1005600087E391E09F938F930E94990BDF92CF9244
:1005700087E491E09F938F930E94990BFF92EF92F3
:1005800088E591E09F938F930E94990B0FB6F894A2
:10059000DEBF0FBECDBF1E141F04FCF48E010B5F27
:1005A0001F4FCE018E0D9F1DFC0135967F010F2E32
:1005B000F0E8CF2EF1E0DF2EF02DF80181918F01D0
:1005C0001F928F93DF92CF920E94990B0F900F9002
:1005D0000F900F90E016F10681F784E891E09F9369
:1005E0008F930E94990B0F900F902C960FB6F89452
:1005F000DEBF0FBECDBFDF91CF911F910F91FF9056
:10060000EF90DF90CF90BF900895CF92DF92EF925E
:10061000FF920F931F93CF93DF93CDB7DEB72C9745
:100620000FB6F894DEBF0FBECDBFE982FA820B830E
:100630001C832D833E834F83588769877A878B87F6
:100640009C87E980FA80CB80DC80B6017595679540
:10065000759567957595679581E30E94C4046C2D27
:100660006295660F607E82E30E94C4046E2D85E36E
:100670000E94C4041E141F040CF05AC080E090E0D5
:1006800010E0E5E0F0E0EC0FFD1FE80FF91F6081DE
:1006900086E3810F0E94C4041F5F812F90E08E15B6
:1006A0009F057CF319C0F60181916F011F928F9312
:1006B0001F930F930E94990B0F900F900F900F9024
:1006C000CE14DF0481F784E891E09F938F930E941A
:1006D000990B0F900F904BC080E00E94EB0487E3D2
:1006E00091E09F938F930E94990BDF92CF9287E4C2
:1006F00091E09F938F930E94990BFF92EF9288E570
:1007000091E09F938F930E94990B6E01F5E0CF0EBD
:10071000D11CCE018E0D9F1D9C012B5F3F4F790197
:100720000FB6F894DEBF0FBECDBF00E811E0BBCF1F
:1007300080E00E94EB0487E391E09F938F930E94F7
:10074000990BDF92CF9287E491E09F938F930E9461
:10075000990BFF92EF9288E591E09F938F930E940F
:10076000990B0FB6F894DEBF0FBECDBFACCF2C9661
:100770000FB6F894DEBF0FBECDBFDF91CF911F91B2
:100780000F91FF90EF90DF90CF9008951F920F92FE
:100790000FB60F9211242F933F934F935F936F9354
:1007A0007F938F939F93AF93BF93EF93FF930E9499
:1007B0003102FF91EF91BF91AF919F918F917F9106
:1007C0006F915F914F913F912F910F900FBE0F90BE
:1007D0001F901895DF92EF92FF920F931F93CF9384
:1007E000DF93D82E7B012FEF8FE791E021508040DF
:1007F0009040E1F700C000C01616170674F4C0E080
:10080000D0E000E010E08D2D0E94E201080F111DE4
:100810002196EC16FD06B9F702C000E010E0C80111
:10082000B7010E94260BCB01DF91CF911F910F9151
:10083000FF90EF90DF900895CF92DF92EF92FF92BA
:10084000CF93DF93EB01282F30E06217730724F179
:10085000682F70E080E090E00E942B0A6B017C0121
:10086000BE01DD0F880B990B0E942D0A9B01AC0184
:10087000C701B6010E94830920E030E048EC52E451
:100880000E94B90A20E030E048EC52E40E941609C8
:100890000E94F509CB0133C0682F70E080E090E042
:1008A0000E942B0A9B01AC0160E070E08FE793E4AB
:1008B0000E9416096B017C01BE01DD0F880B990BAC
:1008C0000E942D0A9B01AC0160E070E08FE793E489
:1008D0000E9416099B01AC01C701B6010E94830961
:1008E00020E030E048EC52EC0E94B90A20E030E011
:1008F00048EC52E40E9417090E94F509CB01DF91F0
:10090000CF91FF90EF90DF90CF90089581B381BB9E
:1009100080B3817090E00895EF92FF920F931F9340
:10092000CF93DF93CDB7DEB72C970FB6F894DEBF29
:100930000FBECDBF362F522F602F91E0092F95E0CB
:10094000E92EF12C10E0282F7A858B859C850E945A
:1009500005032C960FB6F894DEBF0FBECDBFDF9116
:10096000CF911F910F91FF90EF900895CF93C82FD3
:10097000C49883E00E94E2088C2F0E94E2080E9443
:10098000E608C49ACF910895CF93DF93D82FC62F4E
:10099000C49882E00E94E2088D2F0E94E2088C2F0A
:1009A0000E94E208C49ADF91CF910895C49880EC28
:1009B0000E94E208C49A08950E94D7080E94D604B3
:1009C0008EE00E94B604807E803821F088E891E0B5
:1009D0000E94AF0B0895C498813051F028F0823006
:1009E00059F0893069F010C081E80E94E20814C013
:1009F00082E80E94E20810C084E80E94E2080CC06D
:100A000087E80E94E20808C08AEB91E09F938F93E9
:100A10000E94990B0F900F90C49A0895C49880EA91
:100A20000E94E2080E94E608C49A08951F93CF939B
:100A3000DF93182FD62FC42FC49885E00E94E208B8
:100A4000812F0E94E2088D2F0E94E2088C2F0E94C5
:100A5000E208C49ADF91CF911F9108950E94D407B4
:100A600060E080E00E94B9088EE30E9488086FE091
:100A700080E00E94B90888ED91E00E94C8086FE00C
:100A800082E00E94B90883EE91E00E94C8086FE0FE
:100A900084E00E94B9088EEE91E00E94C8086FE0E1
:100AA00086E00E94B9088BEF91E00E94C80810927E
:100AB00097031092960308950F2EFAE0EF2EF2E0BE
:100AC000FF2EF02D80E00E94E201C82ED12C1F9253
:100AD0008F93FF92EF920E94990B81E00E94E201B6
:100AE000C82F0E94860400919203109193032091D5
:100AF0009403309195036C2F70E0AC01C6010E9405
:100B00008C0483ED90E30197F1F700C000000F9093
:100B10000F900F900F90D6CFEF92FF920F931F93ED
:100B2000CF93DF93CDB7DEB72A970FB6F894DEBF29
:100B30000FBECDBF8C010E94D4071F930F9380E49A
:100B400093E09F938F930E94990B0F900F900F90BB
:100B50000F9001151105C1F481E090E0909391038D
:100B6000809390036FE080E00E94B90885E292E0F4
:100B70000E94C8086FE082E00E94B90883E392E017
:100B80000E94C8080E945C050230110509F56FE05B
:100B900080E00E94B90882E492E00E94C8086FE0F9
:100BA00082E00E94B90883E592E00E94C8086FE0E5
:100BB00084E00E94B90887E592E00E94C8086FE0CF
:100BC00086E00E94B9088EE592E00E94C808A7C09E
:100BD0000430110509F041C060E080E00E94B908CE
:100BE00083E692E00E94C8086FE081E00E94B908A5
:100BF00080E792E00E94C80860E082E00E94B908A5
:100C00008CE792E00E94C80860E083E00E94B90887
:100C100089E892E00E94C80860E084E00E94B90878
:100C200080E992E00E94C8086FE085E00E94B90860
:100C30008CE992E00E94C80860E086E00E94B90852
:100C400086EA92E00E94C8086FE087E00E94B90837
:100C500086EB92E00E94C80862C00630110509F0D8
:100C60005EC06FE080E00E94B9088CEB92E00E94C9
:100C7000C808809193038F93809192038F93809102
:100C800095038F93809194038F938AEC92E09F93C6
:100C90008F930E94990B6FE082E00E94B90889ED62
:100CA00092E00E94C8086FE083E00E94B90880913A
:100CB00095038F93809194038F930F2EF4EEEF2E74
:100CC000F2E0FF2EF02DFF92EF928E010F5F1F4F8B
:100CD0001F930F930E94DF0BC8010E94C8086FE0AA
:100CE00084E00E94B90887EE92E00E94C8086FE095
:100CF00085E00E94B908809193038F9380919203BD
:100D00008F93FF92EF921F930F930E94DF0BC80106
:100D10000E94C8080FB6F894DEBF0FBECDBF0E9478
:100D20009E062A960FB6F894DEBF0FBECDBFDF91A8
:100D3000CF911F910F91FF90EF9008956F927F9246
:100D40008F929F92AF92BF92CF92DF92EF92FF92DB
:100D50000F931F93CF93DF93809190039091910312
:100D6000892B09F0FBC0809197038F9380919603A4
:100D70008F9382EF92E09F938F930E94990B0F9035
:100D80000F900F900F90C1E1D3E00F2EF8E3CF2E1C
:100D9000F3E0DF2EF02D06E913E00F2EF9E4EF2E3D
:100DA000F3E0FF2EF02D0F2EF6E08F2E912CF02D7C
:100DB0000F2EFBE6AF2EF3E0BF2EF02D80E00E9459
:100DC000E201682E81E00E94E201782E1F928F934B
:100DD0001F926F92DF93CF930E94990B60919403BF
:100DE00070919503862D0E941C040F900F900F9018
:100DF0000F900F900F90863A9F4F5CF40E942E0543
:100E0000FFE32DE083E0F15020408040E1F700C097
:100E100000006091940370919503862D0E941C043C
:100E20008B359105ECF0809197038F938091960319
:100E30008F93DF92CF920E94990B809196039091AD
:100E400097030E948C059FE3EDE0F3E09150E040B2
:100E5000F040E1F700C000000F900F900F900F904E
:100E60006091920370919303872D0E941C048B352F
:100E700091059CF160E0F80180810E94C208809198
:100E800096039091970302972AF09093970380938B
:100E9000960304C0909297038092960380919703E3
:100EA0008F93809196038F93FF92EF920E94990BFC
:100EB00060E0F80180810E94B9088EE30E948808F2
:100EC000FFE32DE083E0F15020408040E1F700C0D7
:100ED00000000F900F900F900F906091920370910F
:100EE0009303872D0E941C04863A9F4F0CF066CF17
:100EF00060E0F80180810E94C20880919603909181
:100F000097030296873091052CF490939703809372
:100F1000960304C010929703109296038091970352
:100F20008F93809196038F93BF92AF920E94990BFB
:100F300060E0F80180810E94B9088EE30E94880871
:100F4000FFE32DE083E0F15020408040E1F700C056
:100F500000000F900F900F900F9030CFDF91CF9146
:100F60001F910F91FF90EF90DF90CF90BF90AF90C7
:100F70009F908F907F906F9008956AE070E080E07E
:100F80000E94EA0390939503809394036AE070E0D3
:100F900081E00E94EA0390939303809392030E945E
:100FA0002E050E949E06089520EBE0910A01F09123
:100FB0000B01208380E890E0E0910801F0910901A5
:100FC00010820197C9F72F5F283B79F70895E091C8
:100FD0000A01F0910B018EEA8083E0910A01F09101
:100FE0000B0181EA8083E0910A01F0910B018AED07
:100FF0008083E0910A01F0910B0182E18083E0910E
:101000000A01F0910B0188EC8083E0910A01F091D4
:101010000B0188EA8083E0910A01F0910B018FE3D4
:101020008083E0910A01F0910B0185ED8083E091CE
:101030000A01F0910B0180E88083E0910A01F091B0
:101040000B0181E88083E0910A01F0910B0180E3BC
:101050008083E0910A01F0910B0199ED9083E0917A
:101060000A01F0910B0191E29083E0910A01F09165
:101070000B0190E29083E0910A01F0910B0192E064
:101080009083E0910A01F0910B019BED9083E09138
:101090000A01F0910B018083E0910A01F0910B01AC
:1010A0008DEA8083E0910A01F0910B011082E091BA
:1010B0000A01F0910B0184EA8083E0910A01F0912A
:1010C0000B0186EA8083E0910A01F0910B018FEA1F
:1010D000808330EB2FEFE0910A01F0910B01308318
:1010E00080E890E0E0910801F091090120830197E8
:1010F000C9F73F5F383B79F72FEF8FE797E0215033
:1011000080409040E1F700C000000E94D40708959D
:10111000282F30E0F901EE0FFF1FEE0FFF1FEE0F3B
:10112000FF1FE059F040220F331F220F331F220F01
:10113000331F285830409491A0910801B0910901C3
:101140009C933196E217F307B1F708958055E0912B
:101150000A01F0910B0180830895E0910A01F0915A
:101160000B018083E0910A01F0910B0180E1808303
:101170000895CF93C62F0E94A6088C2F0E94AD0819
:10118000CF9108950E94B90880E20E9488080895CE
:10119000CF93DF93EC018881882331F021960E9460
:1011A000880889918111FBCFDF91CF91089587B392
:1011B000806B87BBBE988DB181658DB96B986A983D
:1011C000C49A08958FB9779BFECF089581E60E9457
:1011D000E2088FB1089585B7806885BF80B78062C7
:1011E00080BF08958FE190E00E94070962E179E0F5
:1011F0008EE099E00E944E0B0E94D3010E94EB0802
:101200000E9400020E94E7070E94BD07FDCF9CBF1D
:1012100080B988E181B98EE88CBF0895159BFECF17
:1012200083B90895179BFECF83B108955058BB270B
:10123000AA270E942E090C947F0A0E94710A38F096
:101240000E94780A20F039F49F3F19F426F40C9498
:101250006E0A0EF4E095E7FB0C94680AE92F0E94F1
:10126000900A58F3BA17620773078407950720F0AE
:1012700079F4A6F50C94B20A0EF4E0950B2EBA2F71
:10128000A02D0B01B90190010C01CA01A00111248C
:10129000FF27591B99F0593F50F4503E68F11A1638
:1012A000F040A22F232F342F4427585FF3CF4695C9
:1012B00037952795A795F0405395C9F77EF41F16EB
:1012C000BA0B620B730B840BBAF09150A1F0FF0FB5
:1012D000BB1F661F771F881FC2F70EC0BA0F621FA1
:1012E000731F841F48F4879577956795B795F79591
:1012F0009E3F08F0B0CF9395880F08F09927EE0F26
:101300009795879508950E9497090C947F0A0E94EB
:10131000780A58F00E94710A40F029F45F3F29F0E2
:101320000C94680A51110C94B30A0C946E0A0E9432
:10133000900A68F39923B1F3552391F3951B550B4C
:10134000BB27AA2762177307840738F09F5F5F4F98
:10135000220F331F441FAA1FA9F335D00E2E3AF0D7
:10136000E0E832D091505040E695001CCAF72BD0EF
:10137000FE2F29D0660F771F881FBB1F2617370740
:101380004807AB07B0E809F0BB0B802DBF01FF2772
:1013900093585F4F3AF09E3F510578F00C94680ADD
:1013A0000C94B30A5F3FE4F3983ED4F386957795A7
:1013B0006795B795F7959F5FC9F7880F911D96952B
:1013C000879597F90895E1E0660F771F881FBB1F87
:1013D000621773078407BA0720F0621B730B840B34
:1013E000BA0BEE1F88F7E09508950E94FC096894F7
:1013F000B1110C94B30A08950E94980A88F09F577F
:1014000098F0B92F9927B751B0F0E1F0660F771F28
:10141000881F991F1AF0BA95C9F714C0B13091F01E
:101420000E94B20AB1E008950C94B20A672F782F97
:101430008827B85F39F0B93FCCF3869577956795E3
:10144000B395D9F73EF490958095709561957F4F4F
:101450008F4F9F4F0895E89409C097FB3EF49095F5
:101460008095709561957F4F8F4F9F4F9923A9F07D
:10147000F92F96E9BB279395F6958795779567950C
:10148000B795F111F8CFFAF4BB0F11F460FF1BC050
:101490006F5F7F4F8F4F9F4F16C0882311F096E9E3
:1014A00011C0772321F09EE8872F762F05C0662391
:1014B00071F096E8862F70E060E02AF09A95660F4A
:1014C000771F881FDAF7880F9695879597F9089503
:1014D00097F99F6780E870E060E008959FEF80ECE7
:1014E000089500240A94161617061806090608958A
:1014F00000240A9412161306140605060895092EF0
:101500000394000C11F4882352F0BB0F40F4BF2B5E
:1015100011F460FF04C06F5F7F4F8F4F9F4F08959E
:1015200057FD9058440F551F59F05F3F71F0479594
:10153000880F97FB991F61F09F3F79F08795089579
:10154000121613061406551FF2CF4695F1DF08C098
:10155000161617061806991FF1CF869571056105B5
:1015600008940895E894BB2766277727CB0197F95D
:1015700008950E94CC0A0C947F0A0E94710A38F0E8
:101580000E94780A20F0952311F00C94680A0C94BC
:101590006E0A11240C94B30A0E94900A70F3959F6E
:1015A000C1F3950F50E0551F629FF001729FBB275A
:1015B000F00DB11D639FAA27F00DB11DAA1F649FF6
:1015C0006627B00DA11D661F829F2227B00DA11DA9
:1015D000621F739FB00DA11D621F839FA00D611D2F
:1015E000221F749F3327A00D611D231F849F600D50
:1015F000211D822F762F6A2F11249F5750409AF079
:10160000F1F088234AF0EE0FFF1FBB1F661F771F04
:10161000881F91505040A9F79E3F510580F00C94CF
:10162000680A0C94B30A5F3FE4F3983ED4F38695BE
:1016300077956795B795F795E7959F5FC1F7FE2B6F
:10164000880F911D9695879597F9089597FB072E1A
:1016500016F4009407D077FD09D00E943A0B07FCDE
:1016600005D03EF4909581959F4F089570956195B2
:101670007F4F0895AA1BBB1B51E107C0AA1FBB1FC8
:10168000A617B70710F0A61BB70B881F991F5A950E
:10169000A9F780959095BC01CD0108950F931F93F4
:1016A000CF93DF93009731F46115710519F480E051
:1016B00090E03AC08B01EC016EE070E081E090E0D8
:1016C0000E94E20DFC01892B91F380E883830115D0
:1016D000110571F01387028781E883838091980355
:1016E00090919903892B21F4F0939903E093980347
:1016F0002097C9F0D187C0878381826083838091DE
:101700009A0390919B03892B71F4F0939B03E093D0
:101710009A0380919C0390919D03892B21F4F0936F
:101720009D03E0939C03CF01DF91CF911F910F9117
:101730000895A0E0B0E0EFE9FBE00C94E60FAE0105
:101740004B5F5F4FFA0161917191AF0180919A03F4
:1017500090919B030E94010CE2E00C9402100F9305
:101760001F93CF93DF93E0919A03F0919B03238122
:1017700021FF1BC08C01D0E0C0E0F80181918F01F6
:1017800060919A0370919B03DB011896ED91FC9197
:101790001997882331F00995892B79F3DFEFCFEF83
:1017A000ECCF8AE00995892B19F08FEF9FEF02C0EB
:1017B0008D2F9C2FDF91CF911F910F910895AEE057
:1017C000B0E0E5EEFBE00C94E40F0D891E8986E0A5
:1017D0008C831A8309838FEF9FE79E838D83AE01ED
:1017E000475E5F4F6F89788DCE0101960E94010C94
:1017F000EF81F885E00FF11F10822E96E4E00C9443
:101800000010ABE0B0E0E7E0FCE00C94D60F6C0118
:101810007B018A01FC0117821682838181FFCCC182
:10182000CE0101963C01F6019381F70193FD85916C
:1018300093FF81917F01882309F4BAC1853239F47D
:1018400093FD859193FF81917F01853229F4B60143
:1018500090E00E943C0FE7CF912C212C312CFFE12E
:10186000F315D8F08B3279F038F4803279F0833286
:10187000A1F4232D20611DC08D3261F0803369F405
:10188000232D216016C0832D8260382EE32DE46065
:101890003E2E2AC0F32DF8601DC037FC2DC020ED70
:1018A000280F2A3040F08E32B9F436FC81C1232D46
:1018B0002064322E19C036FE06C08AE0989E200DA4
:1018C0001124922E11C0EAE02E9E200D1124222E0A
:1018D000F32DF0623F2E08C08C3621F4832D8068F2
:1018E000382E02C0883641F4F70193FD859193FFAD
:1018F00081917F018111B3CF982F9F7D95549330B3
:1019000028F40C5F1F4F9FE399830DC0833631F09D
:10191000833771F0833509F059C021C0F801808107
:1019200089830E5F1F4F88248394912C530113C029
:101930002801F2E04F0E511CF801A080B18036FE64
:1019400003C0692D70E002C06FEF7FEFC5010E94F8
:10195000310F4C018201F32DFF773F2E16C0280175
:1019600022E0420E511CF801A080B18036FE03C077
:10197000692D70E002C06FEF7FEFC5010E941F0F5D
:101980004C01F32DF0683F2E820133FC1BC0822DE9
:1019900090E088169906B0F4B60180E290E00E94CB
:1019A0003C0F2A94F4CFF50137FC859137FE8191E5
:1019B0005F01B60190E00E943C0F21102A9421E0C3
:1019C000821A91088114910471F7E8C0843611F0ED
:1019D000893641F5F80137FE07C060817181828147
:1019E00093810C5F1F4F08C060817181072E000C2E
:1019F000880B990B0E5F1F4FF32DFF763F2E97FF3D
:101A000009C090958095709561957F4F8F4F9F4F3E
:101A1000F0683F2E2AE030E0A3010E94780F882E64
:101A2000861845C0853731F4232D2F7EB22E2AE04B
:101A300030E025C0932D997FB92E8F36C1F018F470
:101A4000883579F0B5C0803719F0883721F0B0C0FB
:101A5000E92FE061BE2EB4FE0DC0FB2DF460BF2E59
:101A600009C034FE0AC0292F2660B22E06C028E025
:101A700030E005C020E130E002C020E132E0F801B2
:101A8000B7FE07C060817181828193810C5F1F4F17
:101A900006C06081718180E090E00E5F1F4FA3015E
:101AA0000E94780F882E8618FB2DFF773F2E36FE7A
:101AB0000DC0232D2E7FA22E891458F434FE0BC0A6
:101AC00032FC09C0832D8E7EA82E05C0B82CA32C15
:101AD00003C0B82C01C0B92CA4FE0FC0FE01E80D54
:101AE000F11D8081803321F49A2D997EA92E09C0A1
:101AF000A2FE06C0B394B39404C08A2D867809F080
:101B0000B394A3FC11C0A0FE06C0B21488F4280C44
:101B1000922C9B180EC0B21460F4B60180E290E0E3
:101B20000E943C0FB394F7CFB21418F42B1802C0E4
:101B3000982C212CA4FE10C0B60180E390E00E94F6
:101B40003C0FA2FE17C0A1FC03C088E790E002C0D2
:101B500088E590E0B6010CC08A2D867859F0A1FE88
:101B600002C08BE201C080E2A7FC8DE2B60190E0EA
:101B70000E943C0F891438F4B60180E390E00E9483
:101B80003C0F9A94F7CF8A94F301E80DF11D808100
:101B9000B60190E00E943C0F8110F5CF222009F49D
:101BA00042CEB60180E290E00E943C0F2A94F6CF2C
:101BB000F6018681978102C08FEF9FEF2B96E2E1BD
:101BC0000C94F20F0F931F93CF93DF93869F8001A6
:101BD000879F100D969F100D1124C8010E94FE0DC5
:101BE000EC01009729F0A80160E070E00E942A0F44
:101BF000CE01DF91CF911F910F9108950F931F9305
:101C0000CF93DF938230910510F482E090E0E09171
:101C1000A003F091A10320E030E0A0E0B0E0309715
:101C200019F1408151810281138148175907C8F089
:101C30008417950769F4109731F012960C93129758
:101C400013961C9327C00093A0031093A10322C0F6
:101C50002115310519F04217530718F49A01BD01F7
:101C6000EF01DF01F801DBCF21153105F9F0281B69
:101C7000390B2430310580F48A819B81611571050F
:101C800021F0FB019383828304C09093A10380938E
:101C9000A003FE01329644C0FE01E20FF31F8193C0
:101CA000919322503109398328833AC020919E03B1
:101CB00030919F03232B41F42091020130910301C5
:101CC00030939F0320939E032091000130910101E6
:101CD0002115310541F42DB73EB7409104015091D3
:101CE0000501241B350BE0919E03F0919F03E21741
:101CF000F307A0F42E1B3F0B2817390778F0AC012F
:101D00004E5F5F4F2417350748F04E0F5F1F50930B
:101D10009F0340939E038193919302C0E0E0F0E023
:101D2000CF01DF91CF911F910F910895CF93DF9352
:101D3000009709F481C0FC01329713821282A091AE
:101D4000A003B091A103109781F420813181820F0B
:101D5000931F20919E0330919F032817390751F557
:101D6000F0939F03E0939E0367C0ED0120E030E015
:101D7000CE17DF0740F44A815B819E014115510572
:101D8000F1F0EA01F5CFD383C28340815181840F02
:101D9000951FC817D90759F488819981840F951F19
:101DA0000296918380838A819B819383828321150C
:101DB000310529F4F093A103E093A0033DC0E901AC
:101DC000FB83EA8349915991C40FD51FEC17FD0796
:101DD00061F480819181840F951F0296E9019983B6
:101DE0008883828193819B838A83E0E0F0E012966E
:101DF0008D919C911397009719F0FD01DC01F7CFAD
:101E00008D919C9111979D012E5F3F4F820F931FE3
:101E100020919E0330919F032817390769F430976A
:101E200029F41092A1031092A00302C0138212821F
:101E3000B0939F03A0939E03DF91CF910895FC017F
:101E40000590615070400110D8F7809590958E0FE5
:101E50009F1F0895DC0101C06D9341505040E0F791
:101E60000895FC016150704001900110D8F78095F1
:101E700090958E0F9F1F08950F931F93CF93DF931D
:101E8000FB01238121FD03C08FEF9FEF2CC022FFB8
:101E900016C046815781248135814217530744F487
:101EA000A081B1819D012F5F3F4F318320838C93AF
:101EB000268137812F5F3F4F3783268314C08B01E4
:101EC000EC01FB010084F185E02D0995892BE1F6F9
:101ED000D80116968D919C911797019617969C9311
:101EE0008E931697CE01DF91CF911F910F91089598
:101EF000FA01AA27283051F1203181F1E8946F933B
:101F00006E7F6E5F7F4F8F4F9F4FAF4FB1E03ED0E0
:101F1000B4E03CD0670F781F891F9A1FA11D680F7E
:101F2000791F8A1F911DA11D6A0F711D811D911DB1
:101F3000A11D20D009F468943F912AE0269F112426
:101F40003019305D3193DEF6CF010895462F47708A
:101F5000405D4193B3E00FD0C9F7F6CF462F4F70E5
:101F6000405D4A3318F0495D31FD4052419302D043
:101F7000A9F7EACFB4E0A6959795879577956795E9
:101F8000BA95C9F700976105710508959B01AC01E9
:101F90000A2E06945795479537952795BA95C9F710
:101FA000620F731F841F951FA01D08952F923F92EB
:101FB0004F925F926F927F928F929F92AF92BF9259
:101FC000CF92DF92EF92FF920F931F93CF93DF9305
:101FD000CDB7DEB7CA1BDB0B0FB6F894DEBF0FBE62
:101FE000CDBF09942A88398848885F846E847D84AF
:101FF0008C849B84AA84B984C884DF80EE80FD80B1
:102000000C811B81AA81B981CE0FD11D0FB6F89426
:0E201000DEBF0FBECDBFED010895F894FFCFE7
:10201E000000A20320000014001200104D435032A5
:10202E00353135206973204E4F5420696E206E6F06
:10203E00726D616C206D6F646520616674657220CF
:10204E00726573657421006E6577206D65737361BB
:10205E0067653A200A0D006D6573736167652069C7
:10206E00643A2025640A0D006D65737361676520FF
:10207E0064617461206C656E6774683A2025640A29
:10208E000D6D65737361676520646174613A20003C
:10209E00256420000A0A0D004D435032353135209B
:1020AE006973204E4F5420696E20636F6E666967A8
:1020BE0075726174696F6E206D6F646520616674F0
:1020CE00657220726573657421004E6F74206120F5
:1020DE0076616C696420656E7472790A0D20747273
:1020EE007920616761696E00537461727420476173
:1020FE006D65004272696768746E65737300496E30
:10210E00737472756374696F6E7300446973706C67
:10211E0061792043656E7465720061646320686F37
:10212E0072697A6F6E74616C2076616C75653A2097
:10213E0025640A0D00524541445920534554204709
:10214E004F210050494E4720504F4E472054494D85
:10215E0045004272696768746E657373204C6576CC
:10216E00656C004C4F57004D454449554D0048494C
:10217E00474800302E4A6F792072696768743A00BA
:10218E0073656C656374206974656D00312E5374CC
:10219E006172742067616D6500322E506C6179003A
:1021AE00332E49662073636F72653A0070726573E1
:1021BE0073206A6F7900342E49662067616D652041
:1021CE006F7665723A0072657365740043656E745E
:1021DE0065722076616C75657300783A2025642CE3
:1021EE0020793A2025640A0D00582063656E7465C7
:1021FE00723A2000256400592063656E7465723A48
:10220E00200063757272656E7420726F772062653E
:10221E00666F7265207768696C653A2025640D0AD1
:10222E000061646320686F72697A6F6E74616C3AD4
:10223E002025642C20616463207665727469636165
:10224E006C3A2025640A0D0063757272656E7420F7
:10225E00726F772025640D0A0063757272656E7455
:10226E0020726F77206166746572206D6F76696E6D
:10227E00672075703A2025640D0A006375727265C9
:10228E006E7420726F77206166746572206D6F7642
:10229E00696E6720646F776E3A2025640D0A000020
:00000001FF
